{
	"SOVRCredit.sol": {
		"SOVRCredit": {
			"abi": [
				{
					"inputs": [],
					"stateMutability": "nonpayable",
					"type": "constructor"
				},
				{
					"anonymous": false,
					"inputs": [
						{
							"indexed": true,
							"internalType": "address",
							"name": "from",
							"type": "address"
						},
						{
							"indexed": false,
							"internalType": "uint256",
							"name": "value",
							"type": "uint256"
						}
					],
					"name": "Burn",
					"type": "event"
				},
				{
					"anonymous": false,
					"inputs": [
						{
							"indexed": true,
							"internalType": "address",
							"name": "to",
							"type": "address"
						},
						{
							"indexed": false,
							"internalType": "uint256",
							"name": "value",
							"type": "uint256"
						}
					],
					"name": "Mint",
					"type": "event"
				},
				{
					"anonymous": false,
					"inputs": [
						{
							"indexed": true,
							"internalType": "address",
							"name": "from",
							"type": "address"
						},
						{
							"indexed": true,
							"internalType": "address",
							"name": "to",
							"type": "address"
						},
						{
							"indexed": false,
							"internalType": "uint256",
							"name": "value",
							"type": "uint256"
						}
					],
					"name": "Transfer",
					"type": "event"
				},
				{
					"inputs": [
						{
							"internalType": "address",
							"name": "",
							"type": "address"
						}
					],
					"name": "balanceOf",
					"outputs": [
						{
							"internalType": "uint256",
							"name": "",
							"type": "uint256"
						}
					],
					"stateMutability": "view",
					"type": "function"
				},
				{
					"inputs": [
						{
							"internalType": "address",
							"name": "_from",
							"type": "address"
						},
						{
							"internalType": "uint256",
							"name": "_amount",
							"type": "uint256"
						}
					],
					"name": "burn",
					"outputs": [],
					"stateMutability": "nonpayable",
					"type": "function"
				},
				{
					"inputs": [],
					"name": "decimals",
					"outputs": [
						{
							"internalType": "uint8",
							"name": "",
							"type": "uint8"
						}
					],
					"stateMutability": "view",
					"type": "function"
				},
				{
					"inputs": [
						{
							"internalType": "address",
							"name": "_to",
							"type": "address"
						},
						{
							"internalType": "uint256",
							"name": "_amount",
							"type": "uint256"
						}
					],
					"name": "mint",
					"outputs": [],
					"stateMutability": "nonpayable",
					"type": "function"
				},
				{
					"inputs": [],
					"name": "name",
					"outputs": [
						{
							"internalType": "string",
							"name": "",
							"type": "string"
						}
					],
					"stateMutability": "view",
					"type": "function"
				},
				{
					"inputs": [],
					"name": "owner",
					"outputs": [
						{
							"internalType": "address",
							"name": "",
							"type": "address"
						}
					],
					"stateMutability": "view",
					"type": "function"
				},
				{
					"inputs": [],
					"name": "payrollContract",
					"outputs": [
						{
							"internalType": "address",
							"name": "",
							"type": "address"
						}
					],
					"stateMutability": "view",
					"type": "function"
				},
				{
					"inputs": [
						{
							"internalType": "address",
							"name": "_payroll",
							"type": "address"
						}
					],
					"name": "setPayrollContract",
					"outputs": [],
					"stateMutability": "nonpayable",
					"type": "function"
				},
				{
					"inputs": [],
					"name": "symbol",
					"outputs": [
						{
							"internalType": "string",
							"name": "",
							"type": "string"
						}
					],
					"stateMutability": "view",
					"type": "function"
				},
				{
					"inputs": [],
					"name": "totalSupply",
					"outputs": [
						{
							"internalType": "uint256",
							"name": "",
							"type": "uint256"
						}
					],
					"stateMutability": "view",
					"type": "function"
				}
			],
			"devdoc": {
				"kind": "dev",
				"methods": {},
				"version": 1
			},
			"evm": {
				"assembly": "    /* \"SOVRCredit.sol\":88:122  string public name = \"SOVR Credit\" */\n  0xc0\n    /* \"SOVRCredit.sol\":61:1481  contract SOVRCredit {... */\n  0x40\n    /* \"SOVRCredit.sol\":88:122  string public name = \"SOVR Credit\" */\n  mstore\n  0x0b\n    /* \"SOVRCredit.sol\":61:1481  contract SOVRCredit {... */\n  0x80\n    /* \"SOVRCredit.sol\":88:122  string public name = \"SOVR Credit\" */\n  swap1\n  dup2\n  mstore\n  mstore(0xa0, shl(0xaa, 0x14d3d5948810dc99591a5d))\n  0x00\n  swap1\n  tag_1\n  swap1\n  dup3\n  tag_2\n  jump\t// in\ntag_1:\n  pop\n    /* \"SOVRCredit.sol\":129:159  string public symbol = \"SOVRC\" */\n  0x40\n  dup1\n  mload\n  dup1\n  dup3\n  add\n  swap1\n  swap2\n  mstore\n  0x05\n  dup2\n  mstore\n  shl(0xd8, 0x534f565243)\n  0x20\n  dup3\n  add\n  mstore\n  0x01\n  swap1\n  tag_3\n  swap1\n  dup3\n  tag_2\n  jump\t// in\ntag_3:\n  pop\n    /* \"SOVRCredit.sol\":166:192  uint8 public decimals = 18 */\n  0x02\n  dup1\n  sload\n  not(0xff)\n  and\n    /* \"SOVRCredit.sol\":190:192  18 */\n  0x12\n    /* \"SOVRCredit.sol\":166:192  uint8 public decimals = 18 */\n  or\n  swap1\n  sstore\n    /* \"SOVRCredit.sol\":762:813  constructor() {... */\n  callvalue\n  dup1\n  iszero\n  tag_4\n  jumpi\n  0x00\n  dup1\n  revert\ntag_4:\n  pop\n    /* \"SOVRCredit.sol\":787:792  owner */\n  0x06\n    /* \"SOVRCredit.sol\":787:805  owner = msg.sender */\n  dup1\n  sload\n  not(sub(shl(0xa0, 0x01), 0x01))\n  and\n    /* \"SOVRCredit.sol\":795:805  msg.sender */\n  caller\n    /* \"SOVRCredit.sol\":787:805  owner = msg.sender */\n  or\n  swap1\n  sstore\n    /* \"SOVRCredit.sol\":61:1481  contract SOVRCredit {... */\n  jump(tag_13)\n    /* \"#utility.yul\":14:141   */\ntag_8:\n    /* \"#utility.yul\":75:85   */\n  0x4e487b71\n    /* \"#utility.yul\":70:73   */\n  0xe0\n    /* \"#utility.yul\":66:86   */\n  shl\n    /* \"#utility.yul\":63:64   */\n  0x00\n    /* \"#utility.yul\":56:87   */\n  mstore\n    /* \"#utility.yul\":106:110   */\n  0x41\n    /* \"#utility.yul\":103:104   */\n  0x04\n    /* \"#utility.yul\":96:111   */\n  mstore\n    /* \"#utility.yul\":130:134   */\n  0x24\n    /* \"#utility.yul\":127:128   */\n  0x00\n    /* \"#utility.yul\":120:135   */\n  revert\n    /* \"#utility.yul\":146:526   */\ntag_9:\n    /* \"#utility.yul\":225:226   */\n  0x01\n    /* \"#utility.yul\":221:233   */\n  dup2\n  dup2\n  shr\n  swap1\n    /* \"#utility.yul\":268:280   */\n  dup3\n  and\n  dup1\n    /* \"#utility.yul\":289:350   */\n  tag_16\n  jumpi\n    /* \"#utility.yul\":343:347   */\n  0x7f\n    /* \"#utility.yul\":335:341   */\n  dup3\n    /* \"#utility.yul\":331:348   */\n  and\n    /* \"#utility.yul\":321:348   */\n  swap2\n  pop\n    /* \"#utility.yul\":289:350   */\ntag_16:\n    /* \"#utility.yul\":396:398   */\n  0x20\n    /* \"#utility.yul\":388:394   */\n  dup3\n    /* \"#utility.yul\":385:399   */\n  lt\n    /* \"#utility.yul\":365:383   */\n  dup2\n    /* \"#utility.yul\":362:400   */\n  sub\n    /* \"#utility.yul\":359:520   */\n  tag_17\n  jumpi\n    /* \"#utility.yul\":442:452   */\n  0x4e487b71\n    /* \"#utility.yul\":437:440   */\n  0xe0\n    /* \"#utility.yul\":433:453   */\n  shl\n    /* \"#utility.yul\":430:431   */\n  0x00\n    /* \"#utility.yul\":423:454   */\n  mstore\n    /* \"#utility.yul\":477:481   */\n  0x22\n    /* \"#utility.yul\":474:475   */\n  0x04\n    /* \"#utility.yul\":467:482   */\n  mstore\n    /* \"#utility.yul\":505:509   */\n  0x24\n    /* \"#utility.yul\":502:503   */\n  0x00\n    /* \"#utility.yul\":495:510   */\n  revert\n    /* \"#utility.yul\":359:520   */\ntag_17:\n  pop\n    /* \"#utility.yul\":146:526   */\n  swap2\n  swap1\n  pop\n  jump\t// out\n    /* \"#utility.yul\":657:1202   */\ntag_11:\n    /* \"#utility.yul\":759:761   */\n  0x1f\n    /* \"#utility.yul\":754:757   */\n  dup3\n    /* \"#utility.yul\":751:762   */\n  gt\n    /* \"#utility.yul\":748:1196   */\n  iszero\n  tag_20\n  jumpi\n    /* \"#utility.yul\":795:796   */\n  0x00\n    /* \"#utility.yul\":820:825   */\n  dup2\n    /* \"#utility.yul\":816:818   */\n  dup2\n    /* \"#utility.yul\":809:826   */\n  mstore\n    /* \"#utility.yul\":865:869   */\n  0x20\n    /* \"#utility.yul\":861:863   */\n  dup2\n    /* \"#utility.yul\":851:870   */\n  keccak256\n    /* \"#utility.yul\":935:937   */\n  0x1f\n    /* \"#utility.yul\":923:933   */\n  dup6\n    /* \"#utility.yul\":919:938   */\n  add\n    /* \"#utility.yul\":916:917   */\n  0x05\n    /* \"#utility.yul\":912:939   */\n  shr\n    /* \"#utility.yul\":906:910   */\n  dup2\n    /* \"#utility.yul\":902:940   */\n  add\n    /* \"#utility.yul\":971:975   */\n  0x20\n    /* \"#utility.yul\":959:969   */\n  dup7\n    /* \"#utility.yul\":956:976   */\n  lt\n    /* \"#utility.yul\":953:1000   */\n  iszero\n  tag_21\n  jumpi\n  pop\n    /* \"#utility.yul\":994:998   */\n  dup1\n    /* \"#utility.yul\":953:1000   */\ntag_21:\n    /* \"#utility.yul\":1049:1051   */\n  0x1f\n    /* \"#utility.yul\":1044:1047   */\n  dup6\n    /* \"#utility.yul\":1040:1052   */\n  add\n    /* \"#utility.yul\":1037:1038   */\n  0x05\n    /* \"#utility.yul\":1033:1053   */\n  shr\n    /* \"#utility.yul\":1027:1031   */\n  dup3\n    /* \"#utility.yul\":1023:1054   */\n  add\n    /* \"#utility.yul\":1013:1054   */\n  swap2\n  pop\n    /* \"#utility.yul\":1104:1186   */\ntag_22:\n    /* \"#utility.yul\":1122:1124   */\n  dup2\n    /* \"#utility.yul\":1115:1120   */\n  dup2\n    /* \"#utility.yul\":1112:1125   */\n  lt\n    /* \"#utility.yul\":1104:1186   */\n  iszero\n  tag_24\n  jumpi\n    /* \"#utility.yul\":1167:1184   */\n  dup3\n  dup2\n  sstore\n    /* \"#utility.yul\":1148:1149   */\n  0x01\n    /* \"#utility.yul\":1137:1150   */\n  add\n    /* \"#utility.yul\":1104:1186   */\n  jump(tag_22)\ntag_24:\n    /* \"#utility.yul\":1108:1111   */\n  pop\n  pop\n  pop\n    /* \"#utility.yul\":748:1196   */\ntag_20:\n    /* \"#utility.yul\":657:1202   */\n  pop\n  pop\n  pop\n  jump\t// out\n    /* \"#utility.yul\":1378:2730   */\ntag_2:\n    /* \"#utility.yul\":1498:1508   */\n  dup2\n  mload\n  sub(shl(0x40, 0x01), 0x01)\n    /* \"#utility.yul\":1520:1550   */\n  dup2\n  gt\n    /* \"#utility.yul\":1517:1573   */\n  iszero\n  tag_28\n  jumpi\n    /* \"#utility.yul\":1553:1571   */\n  tag_28\n  tag_8\n  jump\t// in\ntag_28:\n    /* \"#utility.yul\":1582:1679   */\n  tag_29\n    /* \"#utility.yul\":1672:1678   */\n  dup2\n    /* \"#utility.yul\":1632:1670   */\n  tag_30\n    /* \"#utility.yul\":1664:1668   */\n  dup5\n    /* \"#utility.yul\":1658:1669   */\n  sload\n    /* \"#utility.yul\":1632:1670   */\n  tag_9\n  jump\t// in\ntag_30:\n    /* \"#utility.yul\":1626:1630   */\n  dup5\n    /* \"#utility.yul\":1582:1679   */\n  tag_11\n  jump\t// in\ntag_29:\n    /* \"#utility.yul\":1734:1738   */\n  0x20\n  dup1\n    /* \"#utility.yul\":1798:1800   */\n  0x1f\n    /* \"#utility.yul\":1787:1801   */\n  dup4\n  gt\n    /* \"#utility.yul\":1815:1816   */\n  0x01\n    /* \"#utility.yul\":1810:2473   */\n  dup2\n  eq\n  tag_32\n  jumpi\n    /* \"#utility.yul\":2517:2518   */\n  0x00\n    /* \"#utility.yul\":2534:2540   */\n  dup5\n    /* \"#utility.yul\":2531:2620   */\n  iszero\n  tag_33\n  jumpi\n  pop\n    /* \"#utility.yul\":2586:2605   */\n  dup6\n  dup4\n  add\n    /* \"#utility.yul\":2580:2606   */\n  mload\n    /* \"#utility.yul\":2531:2620   */\ntag_33:\n  not(0x00)\n    /* \"#utility.yul\":1335:1336   */\n  0x03\n    /* \"#utility.yul\":1331:1342   */\n  dup7\n  swap1\n  shl\n    /* \"#utility.yul\":1327:1351   */\n  shr\n    /* \"#utility.yul\":1323:1352   */\n  not\n    /* \"#utility.yul\":1313:1353   */\n  and\n    /* \"#utility.yul\":1359:1360   */\n  0x01\n    /* \"#utility.yul\":1355:1366   */\n  dup6\n  swap1\n  shl\n    /* \"#utility.yul\":1310:1367   */\n  or\n    /* \"#utility.yul\":2633:2714   */\n  dup6\n  sstore\n    /* \"#utility.yul\":1780:2724   */\n  jump(tag_24)\n    /* \"#utility.yul\":1810:2473   */\ntag_32:\n    /* \"#utility.yul\":604:605   */\n  0x00\n    /* \"#utility.yul\":597:611   */\n  dup6\n  dup2\n  mstore\n    /* \"#utility.yul\":641:645   */\n  0x20\n    /* \"#utility.yul\":628:646   */\n  dup2\n  keccak256\n  not(0x1f)\n    /* \"#utility.yul\":1846:1866   */\n  dup7\n  and\n  swap2\n    /* \"#utility.yul\":1964:2200   */\ntag_36:\n    /* \"#utility.yul\":1978:1985   */\n  dup3\n    /* \"#utility.yul\":1975:1976   */\n  dup2\n    /* \"#utility.yul\":1972:1986   */\n  lt\n    /* \"#utility.yul\":1964:2200   */\n  iszero\n  tag_38\n  jumpi\n    /* \"#utility.yul\":2067:2086   */\n  dup9\n  dup7\n  add\n    /* \"#utility.yul\":2061:2087   */\n  mload\n    /* \"#utility.yul\":2046:2088   */\n  dup3\n  sstore\n    /* \"#utility.yul\":2159:2186   */\n  swap5\n  dup5\n  add\n  swap5\n    /* \"#utility.yul\":2127:2128   */\n  0x01\n    /* \"#utility.yul\":2115:2129   */\n  swap1\n  swap2\n  add\n  swap1\n    /* \"#utility.yul\":1994:2013   */\n  dup5\n  add\n    /* \"#utility.yul\":1964:2200   */\n  jump(tag_36)\ntag_38:\n    /* \"#utility.yul\":1968:1971   */\n  pop\n    /* \"#utility.yul\":2228:2234   */\n  dup6\n    /* \"#utility.yul\":2219:2226   */\n  dup3\n    /* \"#utility.yul\":2216:2235   */\n  lt\n    /* \"#utility.yul\":2213:2414   */\n  iszero\n  tag_39\n  jumpi\n    /* \"#utility.yul\":2289:2308   */\n  dup8\n  dup6\n  add\n    /* \"#utility.yul\":2283:2309   */\n  mload\n  not(0x00)\n    /* \"#utility.yul\":2372:2373   */\n  0x03\n    /* \"#utility.yul\":2368:2382   */\n  dup9\n  swap1\n  shl\n    /* \"#utility.yul\":2384:2387   */\n  0xf8\n    /* \"#utility.yul\":2364:2388   */\n  and\n    /* \"#utility.yul\":2360:2397   */\n  shr\n    /* \"#utility.yul\":2356:2398   */\n  not\n    /* \"#utility.yul\":2341:2399   */\n  and\n    /* \"#utility.yul\":2326:2400   */\n  dup2\n  sstore\n    /* \"#utility.yul\":2213:2414   */\ntag_39:\n  pop\n  pop\n  pop\n  pop\n  pop\n    /* \"#utility.yul\":2460:2461   */\n  0x01\n    /* \"#utility.yul\":2444:2458   */\n  swap1\n  dup2\n  shl\n    /* \"#utility.yul\":2440:2462   */\n  add\n    /* \"#utility.yul\":2427:2463   */\n  swap1\n  sstore\n  pop\n    /* \"#utility.yul\":1378:2730   */\n  jump\t// out\ntag_13:\n    /* \"SOVRCredit.sol\":61:1481  contract SOVRCredit {... */\n  dataSize(sub_0)\n  dup1\n  dataOffset(sub_0)\n  0x00\n  codecopy\n  0x00\n  return\nstop\n\nsub_0: assembly {\n        /* \"SOVRCredit.sol\":61:1481  contract SOVRCredit {... */\n      mstore(0x40, 0x80)\n      callvalue\n      dup1\n      iszero\n      tag_1\n      jumpi\n      0x00\n      dup1\n      revert\n    tag_1:\n      pop\n      jumpi(tag_2, lt(calldatasize, 0x04))\n      shr(0xe0, calldataload(0x00))\n      dup1\n      0x70a08231\n      gt\n      tag_13\n      jumpi\n      dup1\n      0x70a08231\n      eq\n      tag_8\n      jumpi\n      dup1\n      0x8da5cb5b\n      eq\n      tag_9\n      jumpi\n      dup1\n      0x95d89b41\n      eq\n      tag_10\n      jumpi\n      dup1\n      0x9dc29fac\n      eq\n      tag_11\n      jumpi\n      dup1\n      0xd0020586\n      eq\n      tag_12\n      jumpi\n      0x00\n      dup1\n      revert\n    tag_13:\n      dup1\n      0x06fdde03\n      eq\n      tag_3\n      jumpi\n      dup1\n      0x18160ddd\n      eq\n      tag_4\n      jumpi\n      dup1\n      0x313ce567\n      eq\n      tag_5\n      jumpi\n      dup1\n      0x40c10f19\n      eq\n      tag_6\n      jumpi\n      dup1\n      0x5df3f614\n      eq\n      tag_7\n      jumpi\n    tag_2:\n      0x00\n      dup1\n      revert\n        /* \"SOVRCredit.sol\":88:122  string public name = \"SOVR Credit\" */\n    tag_3:\n      tag_14\n      tag_15\n      jump\t// in\n    tag_14:\n      mload(0x40)\n      tag_16\n      swap2\n      swap1\n      tag_17\n      jump\t// in\n    tag_16:\n      mload(0x40)\n      dup1\n      swap2\n      sub\n      swap1\n      return\n        /* \"SOVRCredit.sol\":199:225  uint256 public totalSupply */\n    tag_4:\n      tag_18\n      sload(0x03)\n      dup2\n      jump\n    tag_18:\n      mload(0x40)\n        /* \"#utility.yul\":713:738   */\n      swap1\n      dup2\n      mstore\n        /* \"#utility.yul\":701:703   */\n      0x20\n        /* \"#utility.yul\":686:704   */\n      add\n        /* \"SOVRCredit.sol\":199:225  uint256 public totalSupply */\n      tag_16\n        /* \"#utility.yul\":567:744   */\n      jump\n        /* \"SOVRCredit.sol\":166:192  uint8 public decimals = 18 */\n    tag_5:\n      sload(0x02)\n      tag_22\n      swap1\n      0xff\n      and\n      dup2\n      jump\n    tag_22:\n      mload(0x40)\n        /* \"#utility.yul\":921:925   */\n      0xff\n        /* \"#utility.yul\":909:926   */\n      swap1\n      swap2\n      and\n        /* \"#utility.yul\":891:927   */\n      dup2\n      mstore\n        /* \"#utility.yul\":879:881   */\n      0x20\n        /* \"#utility.yul\":864:882   */\n      add\n        /* \"SOVRCredit.sol\":166:192  uint8 public decimals = 18 */\n      tag_16\n        /* \"#utility.yul\":749:933   */\n      jump\n        /* \"SOVRCredit.sol\":939:1165  function mint(address _to, uint256 _amount) external onlyPayroll {... */\n    tag_6:\n      tag_26\n      tag_27\n      calldatasize\n      0x04\n      tag_28\n      jump\t// in\n    tag_27:\n      tag_29\n      jump\t// in\n    tag_26:\n      stop\n        /* \"SOVRCredit.sol\":821:931  function setPayrollContract(address _payroll) external onlyOwner {... */\n    tag_7:\n      tag_26\n      tag_31\n      calldatasize\n      0x04\n      tag_32\n      jump\t// in\n    tag_31:\n      tag_33\n      jump\t// in\n        /* \"SOVRCredit.sol\":234:278  mapping(address => uint256) public balanceOf */\n    tag_8:\n      tag_18\n      tag_35\n      calldatasize\n      0x04\n      tag_32\n      jump\t// in\n    tag_35:\n      mstore(0x20, 0x04)\n      0x00\n      swap1\n      dup2\n      mstore\n      0x40\n      swap1\n      keccak256\n      sload\n      dup2\n      jump\n        /* \"SOVRCredit.sol\":322:342  address public owner */\n    tag_9:\n      sload(0x06)\n      tag_38\n      swap1\n      sub(shl(0xa0, 0x01), 0x01)\n      and\n      dup2\n      jump\n    tag_38:\n      mload(0x40)\n      sub(shl(0xa0, 0x01), 0x01)\n        /* \"#utility.yul\":1730:1762   */\n      swap1\n      swap2\n      and\n        /* \"#utility.yul\":1712:1763   */\n      dup2\n      mstore\n        /* \"#utility.yul\":1700:1702   */\n      0x20\n        /* \"#utility.yul\":1685:1703   */\n      add\n        /* \"SOVRCredit.sol\":322:342  address public owner */\n      tag_16\n        /* \"#utility.yul\":1566:1769   */\n      jump\n        /* \"SOVRCredit.sol\":129:159  string public symbol = \"SOVRC\" */\n    tag_10:\n      tag_14\n      tag_43\n      jump\t// in\n        /* \"SOVRCredit.sol\":1173:1478  function burn(address _from, uint256 _amount) external onlyPayroll {... */\n    tag_11:\n      tag_26\n      tag_46\n      calldatasize\n      0x04\n      tag_28\n      jump\t// in\n    tag_46:\n      tag_47\n      jump\t// in\n        /* \"SOVRCredit.sol\":285:315  address public payrollContract */\n    tag_12:\n      sload(0x05)\n      tag_38\n      swap1\n      sub(shl(0xa0, 0x01), 0x01)\n      and\n      dup2\n      jump\n        /* \"SOVRCredit.sol\":88:122  string public name = \"SOVR Credit\" */\n    tag_15:\n      0x00\n      dup1\n      sload\n      tag_51\n      swap1\n      tag_52\n      jump\t// in\n    tag_51:\n      dup1\n      0x1f\n      add\n      0x20\n      dup1\n      swap2\n      div\n      mul\n      0x20\n      add\n      mload(0x40)\n      swap1\n      dup2\n      add\n      0x40\n      mstore\n      dup1\n      swap3\n      swap2\n      swap1\n      dup2\n      dup2\n      mstore\n      0x20\n      add\n      dup3\n      dup1\n      sload\n      tag_53\n      swap1\n      tag_52\n      jump\t// in\n    tag_53:\n      dup1\n      iszero\n      tag_54\n      jumpi\n      dup1\n      0x1f\n      lt\n      tag_55\n      jumpi\n      0x0100\n      dup1\n      dup4\n      sload\n      div\n      mul\n      dup4\n      mstore\n      swap2\n      0x20\n      add\n      swap2\n      jump(tag_54)\n    tag_55:\n      dup3\n      add\n      swap2\n      swap1\n      0x00\n      mstore\n      keccak256(0x00, 0x20)\n      swap1\n    tag_56:\n      dup2\n      sload\n      dup2\n      mstore\n      swap1\n      0x01\n      add\n      swap1\n      0x20\n      add\n      dup1\n      dup4\n      gt\n      tag_56\n      jumpi\n      dup3\n      swap1\n      sub\n      0x1f\n      and\n      dup3\n      add\n      swap2\n    tag_54:\n      pop\n      pop\n      pop\n      pop\n      pop\n      dup2\n      jump\t// out\n        /* \"SOVRCredit.sol\":939:1165  function mint(address _to, uint256 _amount) external onlyPayroll {... */\n    tag_29:\n        /* \"SOVRCredit.sol\":694:709  payrollContract */\n      and(sub(shl(0xa0, 0x01), 0x01), sload(0x05))\n        /* \"SOVRCredit.sol\":680:690  msg.sender */\n      caller\n        /* \"SOVRCredit.sol\":680:709  msg.sender == payrollContract */\n      eq\n        /* \"SOVRCredit.sol\":672:734  require(msg.sender == payrollContract, \"Not payroll contract\") */\n      tag_58\n      jumpi\n      mload(0x40)\n      shl(0xe5, 0x461bcd)\n      dup2\n      mstore\n        /* \"#utility.yul\":2361:2363   */\n      0x20\n        /* \"SOVRCredit.sol\":672:734  require(msg.sender == payrollContract, \"Not payroll contract\") */\n      0x04\n      dup3\n      add\n        /* \"#utility.yul\":2343:2364   */\n      mstore\n        /* \"#utility.yul\":2400:2402   */\n      0x14\n        /* \"#utility.yul\":2380:2398   */\n      0x24\n      dup3\n      add\n        /* \"#utility.yul\":2373:2403   */\n      mstore\n      shl(0x62, 0x139bdd081c185e5c9bdb1b0818dbdb9d1c9858dd)\n        /* \"#utility.yul\":2419:2437   */\n      0x44\n      dup3\n      add\n        /* \"#utility.yul\":2412:2462   */\n      mstore\n        /* \"#utility.yul\":2479:2497   */\n      0x64\n      add\n        /* \"SOVRCredit.sol\":672:734  require(msg.sender == payrollContract, \"Not payroll contract\") */\n    tag_59:\n      mload(0x40)\n      dup1\n      swap2\n      sub\n      swap1\n      revert\n    tag_58:\n        /* \"SOVRCredit.sol\":1030:1037  _amount */\n      dup1\n        /* \"SOVRCredit.sol\":1015:1026  totalSupply */\n      0x03\n      0x00\n        /* \"SOVRCredit.sol\":1015:1037  totalSupply += _amount */\n      dup3\n      dup3\n      sload\n      tag_62\n      swap2\n      swap1\n      tag_63\n      jump\t// in\n    tag_62:\n      swap1\n      swap2\n      sstore\n      pop\n      pop\n      sub(shl(0xa0, 0x01), 0x01)\n        /* \"SOVRCredit.sol\":1048:1062  balanceOf[_to] */\n      dup3\n      and\n      0x00\n      swap1\n      dup2\n      mstore\n        /* \"SOVRCredit.sol\":1048:1057  balanceOf */\n      0x04\n        /* \"SOVRCredit.sol\":1048:1062  balanceOf[_to] */\n      0x20\n      mstore\n      0x40\n      dup2\n      keccak256\n        /* \"SOVRCredit.sol\":1048:1073  balanceOf[_to] += _amount */\n      dup1\n      sload\n        /* \"SOVRCredit.sol\":1066:1073  _amount */\n      dup4\n      swap3\n        /* \"SOVRCredit.sol\":1048:1062  balanceOf[_to] */\n      swap1\n        /* \"SOVRCredit.sol\":1048:1073  balanceOf[_to] += _amount */\n      tag_64\n      swap1\n        /* \"SOVRCredit.sol\":1066:1073  _amount */\n      dup5\n      swap1\n        /* \"SOVRCredit.sol\":1048:1073  balanceOf[_to] += _amount */\n      tag_63\n      jump\t// in\n    tag_64:\n      swap1\n      swap2\n      sstore\n      pop\n      pop\n        /* \"SOVRCredit.sol\":1089:1107  Mint(_to, _amount) */\n      mload(0x40)\n        /* \"#utility.yul\":713:738   */\n      dup2\n      dup2\n      mstore\n      sub(shl(0xa0, 0x01), 0x01)\n        /* \"SOVRCredit.sol\":1089:1107  Mint(_to, _amount) */\n      dup4\n      and\n      swap1\n      0x0f6798a560793a54c3bcfe86a93cde1e73087d944c0ea20544137d4121396885\n      swap1\n        /* \"#utility.yul\":701:703   */\n      0x20\n        /* \"#utility.yul\":686:704   */\n      add\n        /* \"SOVRCredit.sol\":1089:1107  Mint(_to, _amount) */\n      mload(0x40)\n      dup1\n      swap2\n      sub\n      swap1\n      log2\n        /* \"SOVRCredit.sol\":1123:1157  Transfer(address(0), _to, _amount) */\n      mload(0x40)\n        /* \"#utility.yul\":713:738   */\n      dup2\n      dup2\n      mstore\n      sub(shl(0xa0, 0x01), 0x01)\n        /* \"SOVRCredit.sol\":1123:1157  Transfer(address(0), _to, _amount) */\n      dup4\n      and\n      swap1\n        /* \"SOVRCredit.sol\":1140:1141  0 */\n      0x00\n      swap1\n        /* \"SOVRCredit.sol\":1123:1157  Transfer(address(0), _to, _amount) */\n      0xddf252ad1be2c89b69c2b068fc378daa952ba7f163c4a11628f55a4df523b3ef\n      swap1\n        /* \"#utility.yul\":701:703   */\n      0x20\n        /* \"#utility.yul\":686:704   */\n      add\n        /* \"SOVRCredit.sol\":1123:1157  Transfer(address(0), _to, _amount) */\n    tag_66:\n      mload(0x40)\n      dup1\n      swap2\n      sub\n      swap1\n      log3\n        /* \"SOVRCredit.sol\":939:1165  function mint(address _to, uint256 _amount) external onlyPayroll {... */\n      pop\n      pop\n      jump\t// out\n        /* \"SOVRCredit.sol\":821:931  function setPayrollContract(address _payroll) external onlyOwner {... */\n    tag_33:\n        /* \"SOVRCredit.sol\":591:596  owner */\n      and(sub(shl(0xa0, 0x01), 0x01), sload(0x06))\n        /* \"SOVRCredit.sol\":577:587  msg.sender */\n      caller\n        /* \"SOVRCredit.sol\":577:596  msg.sender == owner */\n      eq\n        /* \"SOVRCredit.sol\":569:610  require(msg.sender == owner, \"Not owner\") */\n      tag_68\n      jumpi\n      mload(0x40)\n      shl(0xe5, 0x461bcd)\n      dup2\n      mstore\n        /* \"#utility.yul\":2972:2974   */\n      0x20\n        /* \"SOVRCredit.sol\":569:610  require(msg.sender == owner, \"Not owner\") */\n      0x04\n      dup3\n      add\n        /* \"#utility.yul\":2954:2975   */\n      mstore\n        /* \"#utility.yul\":3011:3012   */\n      0x09\n        /* \"#utility.yul\":2991:3009   */\n      0x24\n      dup3\n      add\n        /* \"#utility.yul\":2984:3013   */\n      mstore\n      shl(0xb9, 0x2737ba1037bbb732b9)\n        /* \"#utility.yul\":3029:3047   */\n      0x44\n      dup3\n      add\n        /* \"#utility.yul\":3022:3061   */\n      mstore\n        /* \"#utility.yul\":3078:3096   */\n      0x64\n      add\n        /* \"SOVRCredit.sol\":569:610  require(msg.sender == owner, \"Not owner\") */\n      tag_59\n        /* \"#utility.yul\":2770:3102   */\n      jump\n        /* \"SOVRCredit.sol\":569:610  require(msg.sender == owner, \"Not owner\") */\n    tag_68:\n        /* \"SOVRCredit.sol\":897:912  payrollContract */\n      0x05\n        /* \"SOVRCredit.sol\":897:923  payrollContract = _payroll */\n      dup1\n      sload\n      not(sub(shl(0xa0, 0x01), 0x01))\n      and\n      sub(shl(0xa0, 0x01), 0x01)\n      swap3\n      swap1\n      swap3\n      and\n      swap2\n      swap1\n      swap2\n      or\n      swap1\n      sstore\n        /* \"SOVRCredit.sol\":821:931  function setPayrollContract(address _payroll) external onlyOwner {... */\n      jump\t// out\n        /* \"SOVRCredit.sol\":129:159  string public symbol = \"SOVRC\" */\n    tag_43:\n      0x01\n      dup1\n      sload\n      tag_51\n      swap1\n      tag_52\n      jump\t// in\n        /* \"SOVRCredit.sol\":1173:1478  function burn(address _from, uint256 _amount) external onlyPayroll {... */\n    tag_47:\n        /* \"SOVRCredit.sol\":694:709  payrollContract */\n      and(sub(shl(0xa0, 0x01), 0x01), sload(0x05))\n        /* \"SOVRCredit.sol\":680:690  msg.sender */\n      caller\n        /* \"SOVRCredit.sol\":680:709  msg.sender == payrollContract */\n      eq\n        /* \"SOVRCredit.sol\":672:734  require(msg.sender == payrollContract, \"Not payroll contract\") */\n      tag_78\n      jumpi\n      mload(0x40)\n      shl(0xe5, 0x461bcd)\n      dup2\n      mstore\n        /* \"#utility.yul\":2361:2363   */\n      0x20\n        /* \"SOVRCredit.sol\":672:734  require(msg.sender == payrollContract, \"Not payroll contract\") */\n      0x04\n      dup3\n      add\n        /* \"#utility.yul\":2343:2364   */\n      mstore\n        /* \"#utility.yul\":2400:2402   */\n      0x14\n        /* \"#utility.yul\":2380:2398   */\n      0x24\n      dup3\n      add\n        /* \"#utility.yul\":2373:2403   */\n      mstore\n      shl(0x62, 0x139bdd081c185e5c9bdb1b0818dbdb9d1c9858dd)\n        /* \"#utility.yul\":2419:2437   */\n      0x44\n      dup3\n      add\n        /* \"#utility.yul\":2412:2462   */\n      mstore\n        /* \"#utility.yul\":2479:2497   */\n      0x64\n      add\n        /* \"SOVRCredit.sol\":672:734  require(msg.sender == payrollContract, \"Not payroll contract\") */\n      tag_59\n        /* \"#utility.yul\":2159:2503   */\n      jump\n        /* \"SOVRCredit.sol\":672:734  require(msg.sender == payrollContract, \"Not payroll contract\") */\n    tag_78:\n      sub(shl(0xa0, 0x01), 0x01)\n        /* \"SOVRCredit.sol\":1259:1275  balanceOf[_from] */\n      dup3\n      and\n      0x00\n      swap1\n      dup2\n      mstore\n        /* \"SOVRCredit.sol\":1259:1268  balanceOf */\n      0x04\n        /* \"SOVRCredit.sol\":1259:1275  balanceOf[_from] */\n      0x20\n      mstore\n      0x40\n      swap1\n      keccak256\n      sload\n        /* \"SOVRCredit.sol\":1259:1286  balanceOf[_from] >= _amount */\n      dup2\n      gt\n      iszero\n        /* \"SOVRCredit.sol\":1251:1311  require(balanceOf[_from] >= _amount, \"Insufficient balance\") */\n      tag_81\n      jumpi\n      mload(0x40)\n      shl(0xe5, 0x461bcd)\n      dup2\n      mstore\n        /* \"#utility.yul\":3309:3311   */\n      0x20\n        /* \"SOVRCredit.sol\":1251:1311  require(balanceOf[_from] >= _amount, \"Insufficient balance\") */\n      0x04\n      dup3\n      add\n        /* \"#utility.yul\":3291:3312   */\n      mstore\n        /* \"#utility.yul\":3348:3350   */\n      0x14\n        /* \"#utility.yul\":3328:3346   */\n      0x24\n      dup3\n      add\n        /* \"#utility.yul\":3321:3351   */\n      mstore\n      shl(0x60, 0x496e73756666696369656e742062616c616e6365)\n        /* \"#utility.yul\":3367:3385   */\n      0x44\n      dup3\n      add\n        /* \"#utility.yul\":3360:3410   */\n      mstore\n        /* \"#utility.yul\":3427:3445   */\n      0x64\n      add\n        /* \"SOVRCredit.sol\":1251:1311  require(balanceOf[_from] >= _amount, \"Insufficient balance\") */\n      tag_59\n        /* \"#utility.yul\":3107:3451   */\n      jump\n        /* \"SOVRCredit.sol\":1251:1311  require(balanceOf[_from] >= _amount, \"Insufficient balance\") */\n    tag_81:\n      sub(shl(0xa0, 0x01), 0x01)\n        /* \"SOVRCredit.sol\":1322:1338  balanceOf[_from] */\n      dup3\n      and\n      0x00\n      swap1\n      dup2\n      mstore\n        /* \"SOVRCredit.sol\":1322:1331  balanceOf */\n      0x04\n        /* \"SOVRCredit.sol\":1322:1338  balanceOf[_from] */\n      0x20\n      mstore\n      0x40\n      dup2\n      keccak256\n        /* \"SOVRCredit.sol\":1322:1349  balanceOf[_from] -= _amount */\n      dup1\n      sload\n        /* \"SOVRCredit.sol\":1342:1349  _amount */\n      dup4\n      swap3\n        /* \"SOVRCredit.sol\":1322:1338  balanceOf[_from] */\n      swap1\n        /* \"SOVRCredit.sol\":1322:1349  balanceOf[_from] -= _amount */\n      tag_84\n      swap1\n        /* \"SOVRCredit.sol\":1342:1349  _amount */\n      dup5\n      swap1\n        /* \"SOVRCredit.sol\":1322:1349  balanceOf[_from] -= _amount */\n      tag_85\n      jump\t// in\n    tag_84:\n      swap3\n      pop\n      pop\n      dup2\n      swap1\n      sstore\n      pop\n        /* \"SOVRCredit.sol\":1375:1382  _amount */\n      dup1\n        /* \"SOVRCredit.sol\":1360:1371  totalSupply */\n      0x03\n      0x00\n        /* \"SOVRCredit.sol\":1360:1382  totalSupply -= _amount */\n      dup3\n      dup3\n      sload\n      tag_86\n      swap2\n      swap1\n      tag_85\n      jump\t// in\n    tag_86:\n      swap1\n      swap2\n      sstore\n      pop\n      pop\n        /* \"SOVRCredit.sol\":1398:1418  Burn(_from, _amount) */\n      mload(0x40)\n        /* \"#utility.yul\":713:738   */\n      dup2\n      dup2\n      mstore\n      sub(shl(0xa0, 0x01), 0x01)\n        /* \"SOVRCredit.sol\":1398:1418  Burn(_from, _amount) */\n      dup4\n      and\n      swap1\n      0xcc16f5dbb4873280815c1ee09dbd06736cffcc184412cf7a71a0fdb75d397ca5\n      swap1\n        /* \"#utility.yul\":701:703   */\n      0x20\n        /* \"#utility.yul\":686:704   */\n      add\n        /* \"SOVRCredit.sol\":1398:1418  Burn(_from, _amount) */\n      mload(0x40)\n      dup1\n      swap2\n      sub\n      swap1\n      log2\n        /* \"SOVRCredit.sol\":1434:1470  Transfer(_from, address(0), _amount) */\n      mload(0x40)\n        /* \"#utility.yul\":713:738   */\n      dup2\n      dup2\n      mstore\n        /* \"SOVRCredit.sol\":1458:1459  0 */\n      0x00\n      swap1\n      sub(shl(0xa0, 0x01), 0x01)\n        /* \"SOVRCredit.sol\":1434:1470  Transfer(_from, address(0), _amount) */\n      dup5\n      and\n      swap1\n      0xddf252ad1be2c89b69c2b068fc378daa952ba7f163c4a11628f55a4df523b3ef\n      swap1\n        /* \"#utility.yul\":701:703   */\n      0x20\n        /* \"#utility.yul\":686:704   */\n      add\n        /* \"SOVRCredit.sol\":1434:1470  Transfer(_from, address(0), _amount) */\n      tag_66\n        /* \"#utility.yul\":567:744   */\n      jump\n        /* \"#utility.yul\":14:562   */\n    tag_17:\n        /* \"#utility.yul\":126:130   */\n      0x00\n        /* \"#utility.yul\":155:157   */\n      0x20\n        /* \"#utility.yul\":184:186   */\n      dup1\n        /* \"#utility.yul\":173:182   */\n      dup4\n        /* \"#utility.yul\":166:187   */\n      mstore\n        /* \"#utility.yul\":216:222   */\n      dup4\n        /* \"#utility.yul\":210:223   */\n      mload\n        /* \"#utility.yul\":259:265   */\n      dup1\n        /* \"#utility.yul\":254:256   */\n      dup3\n        /* \"#utility.yul\":243:252   */\n      dup6\n        /* \"#utility.yul\":239:257   */\n      add\n        /* \"#utility.yul\":232:266   */\n      mstore\n        /* \"#utility.yul\":284:285   */\n      0x00\n        /* \"#utility.yul\":294:434   */\n    tag_93:\n        /* \"#utility.yul\":308:314   */\n      dup2\n        /* \"#utility.yul\":305:306   */\n      dup2\n        /* \"#utility.yul\":302:315   */\n      lt\n        /* \"#utility.yul\":294:434   */\n      iszero\n      tag_95\n      jumpi\n        /* \"#utility.yul\":403:417   */\n      dup6\n      dup2\n      add\n        /* \"#utility.yul\":399:422   */\n      dup4\n      add\n        /* \"#utility.yul\":393:423   */\n      mload\n        /* \"#utility.yul\":369:386   */\n      dup6\n      dup3\n      add\n        /* \"#utility.yul\":388:390   */\n      0x40\n        /* \"#utility.yul\":365:391   */\n      add\n        /* \"#utility.yul\":358:424   */\n      mstore\n        /* \"#utility.yul\":323:333   */\n      dup3\n      add\n        /* \"#utility.yul\":294:434   */\n      jump(tag_93)\n    tag_95:\n        /* \"#utility.yul\":298:301   */\n      pop\n        /* \"#utility.yul\":483:484   */\n      0x00\n        /* \"#utility.yul\":478:480   */\n      0x40\n        /* \"#utility.yul\":469:475   */\n      dup3\n        /* \"#utility.yul\":458:467   */\n      dup7\n        /* \"#utility.yul\":454:476   */\n      add\n        /* \"#utility.yul\":450:481   */\n      add\n        /* \"#utility.yul\":443:485   */\n      mstore\n        /* \"#utility.yul\":553:555   */\n      0x40\n        /* \"#utility.yul\":546:548   */\n      0x1f\n        /* \"#utility.yul\":542:549   */\n      not\n        /* \"#utility.yul\":537:539   */\n      0x1f\n        /* \"#utility.yul\":529:535   */\n      dup4\n        /* \"#utility.yul\":525:540   */\n      add\n        /* \"#utility.yul\":521:550   */\n      and\n        /* \"#utility.yul\":510:519   */\n      dup6\n        /* \"#utility.yul\":506:551   */\n      add\n        /* \"#utility.yul\":502:556   */\n      add\n        /* \"#utility.yul\":494:556   */\n      swap3\n      pop\n      pop\n      pop\n        /* \"#utility.yul\":14:562   */\n      swap3\n      swap2\n      pop\n      pop\n      jump\t// out\n        /* \"#utility.yul\":938:1111   */\n    tag_89:\n        /* \"#utility.yul\":1006:1026   */\n      dup1\n      calldataload\n      sub(shl(0xa0, 0x01), 0x01)\n        /* \"#utility.yul\":1055:1086   */\n      dup2\n      and\n        /* \"#utility.yul\":1045:1087   */\n      dup2\n      eq\n        /* \"#utility.yul\":1035:1105   */\n      tag_99\n      jumpi\n        /* \"#utility.yul\":1101:1102   */\n      0x00\n        /* \"#utility.yul\":1098:1099   */\n      dup1\n        /* \"#utility.yul\":1091:1103   */\n      revert\n        /* \"#utility.yul\":1035:1105   */\n    tag_99:\n        /* \"#utility.yul\":938:1111   */\n      swap2\n      swap1\n      pop\n      jump\t// out\n        /* \"#utility.yul\":1116:1370   */\n    tag_28:\n        /* \"#utility.yul\":1184:1190   */\n      0x00\n        /* \"#utility.yul\":1192:1198   */\n      dup1\n        /* \"#utility.yul\":1245:1247   */\n      0x40\n        /* \"#utility.yul\":1233:1242   */\n      dup4\n        /* \"#utility.yul\":1224:1231   */\n      dup6\n        /* \"#utility.yul\":1220:1243   */\n      sub\n        /* \"#utility.yul\":1216:1248   */\n      slt\n        /* \"#utility.yul\":1213:1265   */\n      iszero\n      tag_101\n      jumpi\n        /* \"#utility.yul\":1261:1262   */\n      0x00\n        /* \"#utility.yul\":1258:1259   */\n      dup1\n        /* \"#utility.yul\":1251:1263   */\n      revert\n        /* \"#utility.yul\":1213:1265   */\n    tag_101:\n        /* \"#utility.yul\":1284:1313   */\n      tag_102\n        /* \"#utility.yul\":1303:1312   */\n      dup4\n        /* \"#utility.yul\":1284:1313   */\n      tag_89\n      jump\t// in\n    tag_102:\n        /* \"#utility.yul\":1274:1313   */\n      swap5\n        /* \"#utility.yul\":1360:1362   */\n      0x20\n        /* \"#utility.yul\":1345:1363   */\n      swap4\n      swap1\n      swap4\n      add\n        /* \"#utility.yul\":1332:1364   */\n      calldataload\n      swap4\n      pop\n      pop\n      pop\n        /* \"#utility.yul\":1116:1370   */\n      jump\t// out\n        /* \"#utility.yul\":1375:1561   */\n    tag_32:\n        /* \"#utility.yul\":1434:1440   */\n      0x00\n        /* \"#utility.yul\":1487:1489   */\n      0x20\n        /* \"#utility.yul\":1475:1484   */\n      dup3\n        /* \"#utility.yul\":1466:1473   */\n      dup5\n        /* \"#utility.yul\":1462:1485   */\n      sub\n        /* \"#utility.yul\":1458:1490   */\n      slt\n        /* \"#utility.yul\":1455:1507   */\n      iszero\n      tag_104\n      jumpi\n        /* \"#utility.yul\":1503:1504   */\n      0x00\n        /* \"#utility.yul\":1500:1501   */\n      dup1\n        /* \"#utility.yul\":1493:1505   */\n      revert\n        /* \"#utility.yul\":1455:1507   */\n    tag_104:\n        /* \"#utility.yul\":1526:1555   */\n      tag_105\n        /* \"#utility.yul\":1545:1554   */\n      dup3\n        /* \"#utility.yul\":1526:1555   */\n      tag_89\n      jump\t// in\n    tag_105:\n        /* \"#utility.yul\":1516:1555   */\n      swap4\n        /* \"#utility.yul\":1375:1561   */\n      swap3\n      pop\n      pop\n      pop\n      jump\t// out\n        /* \"#utility.yul\":1774:2154   */\n    tag_52:\n        /* \"#utility.yul\":1853:1854   */\n      0x01\n        /* \"#utility.yul\":1849:1861   */\n      dup2\n      dup2\n      shr\n      swap1\n        /* \"#utility.yul\":1896:1908   */\n      dup3\n      and\n      dup1\n        /* \"#utility.yul\":1917:1978   */\n      tag_108\n      jumpi\n        /* \"#utility.yul\":1971:1975   */\n      0x7f\n        /* \"#utility.yul\":1963:1969   */\n      dup3\n        /* \"#utility.yul\":1959:1976   */\n      and\n        /* \"#utility.yul\":1949:1976   */\n      swap2\n      pop\n        /* \"#utility.yul\":1917:1978   */\n    tag_108:\n        /* \"#utility.yul\":2024:2026   */\n      0x20\n        /* \"#utility.yul\":2016:2022   */\n      dup3\n        /* \"#utility.yul\":2013:2027   */\n      lt\n        /* \"#utility.yul\":1993:2011   */\n      dup2\n        /* \"#utility.yul\":1990:2028   */\n      sub\n        /* \"#utility.yul\":1987:2148   */\n      tag_109\n      jumpi\n        /* \"#utility.yul\":2070:2080   */\n      0x4e487b71\n        /* \"#utility.yul\":2065:2068   */\n      0xe0\n        /* \"#utility.yul\":2061:2081   */\n      shl\n        /* \"#utility.yul\":2058:2059   */\n      0x00\n        /* \"#utility.yul\":2051:2082   */\n      mstore\n        /* \"#utility.yul\":2105:2109   */\n      0x22\n        /* \"#utility.yul\":2102:2103   */\n      0x04\n        /* \"#utility.yul\":2095:2110   */\n      mstore\n        /* \"#utility.yul\":2133:2137   */\n      0x24\n        /* \"#utility.yul\":2130:2131   */\n      0x00\n        /* \"#utility.yul\":2123:2138   */\n      revert\n        /* \"#utility.yul\":1987:2148   */\n    tag_109:\n      pop\n        /* \"#utility.yul\":1774:2154   */\n      swap2\n      swap1\n      pop\n      jump\t// out\n        /* \"#utility.yul\":2508:2635   */\n    tag_90:\n        /* \"#utility.yul\":2569:2579   */\n      0x4e487b71\n        /* \"#utility.yul\":2564:2567   */\n      0xe0\n        /* \"#utility.yul\":2560:2580   */\n      shl\n        /* \"#utility.yul\":2557:2558   */\n      0x00\n        /* \"#utility.yul\":2550:2581   */\n      mstore\n        /* \"#utility.yul\":2600:2604   */\n      0x11\n        /* \"#utility.yul\":2597:2598   */\n      0x04\n        /* \"#utility.yul\":2590:2605   */\n      mstore\n        /* \"#utility.yul\":2624:2628   */\n      0x24\n        /* \"#utility.yul\":2621:2622   */\n      0x00\n        /* \"#utility.yul\":2614:2629   */\n      revert\n        /* \"#utility.yul\":2640:2765   */\n    tag_63:\n        /* \"#utility.yul\":2705:2714   */\n      dup1\n      dup3\n      add\n        /* \"#utility.yul\":2726:2736   */\n      dup1\n      dup3\n      gt\n        /* \"#utility.yul\":2723:2759   */\n      iszero\n      tag_114\n      jumpi\n        /* \"#utility.yul\":2739:2757   */\n      tag_114\n      tag_90\n      jump\t// in\n    tag_114:\n        /* \"#utility.yul\":2640:2765   */\n      swap3\n      swap2\n      pop\n      pop\n      jump\t// out\n        /* \"#utility.yul\":3456:3584   */\n    tag_85:\n        /* \"#utility.yul\":3523:3532   */\n      dup2\n      dup2\n      sub\n        /* \"#utility.yul\":3544:3555   */\n      dup2\n      dup2\n      gt\n        /* \"#utility.yul\":3541:3578   */\n      iszero\n      tag_114\n      jumpi\n        /* \"#utility.yul\":3558:3576   */\n      tag_114\n      tag_90\n      jump\t// in\n\n    auxdata: 0xa2646970667358221220c0ac9dc820527e088837116aed4d4145ce32923bdfbc811c92da451f4b580b6964736f6c63430008140033\n}\n",
				"bytecode": {
					"linkReferences": {},
					"object": "60c0604052600b60809081526a14d3d5948810dc99591a5d60aa1b60a0525f90610029908261011e565b50604080518082019091526005815264534f56524360d81b6020820152600190610053908261011e565b506002805460ff1916601217905534801561006c575f80fd5b50600680546001600160a01b031916331790556101d9565b634e487b7160e01b5f52604160045260245ffd5b600181811c908216806100ac57607f821691505b6020821081036100ca57634e487b7160e01b5f52602260045260245ffd5b50919050565b601f821115610119575f81815260208120601f850160051c810160208610156100f65750805b601f850160051c820191505b8181101561011557828155600101610102565b5050505b505050565b81516001600160401b0381111561013757610137610084565b61014b816101458454610098565b846100d0565b602080601f83116001811461017e575f84156101675750858301515b5f19600386901b1c1916600185901b178555610115565b5f85815260208120601f198616915b828110156101ac5788860151825594840194600190910190840161018d565b50858210156101c957878501515f19600388901b60f8161c191681555b5050505050600190811b01905550565b610678806101e65f395ff3fe608060405234801561000f575f80fd5b506004361061009b575f3560e01c806370a082311161006357806370a082311461011b5780638da5cb5b1461013a57806395d89b41146101655780639dc29fac1461016d578063d002058614610180575f80fd5b806306fdde031461009f57806318160ddd146100bd578063313ce567146100d457806340c10f19146100f35780635df3f61414610108575b5f80fd5b6100a7610193565b6040516100b4919061051c565b60405180910390f35b6100c660035481565b6040519081526020016100b4565b6002546100e19060ff1681565b60405160ff90911681526020016100b4565b610106610101366004610582565b61021e565b005b6101066101163660046105aa565b610339565b6100c66101293660046105aa565b60046020525f908152604090205481565b60065461014d906001600160a01b031681565b6040516001600160a01b0390911681526020016100b4565b6100a76103a1565b61010661017b366004610582565b6103ae565b60055461014d906001600160a01b031681565b5f805461019f906105ca565b80601f01602080910402602001604051908101604052809291908181526020018280546101cb906105ca565b80156102165780601f106101ed57610100808354040283529160200191610216565b820191905f5260205f20905b8154815290600101906020018083116101f957829003601f168201915b505050505081565b6005546001600160a01b031633146102745760405162461bcd60e51b8152602060048201526014602482015273139bdd081c185e5c9bdb1b0818dbdb9d1c9858dd60621b60448201526064015b60405180910390fd5b8060035f8282546102859190610616565b90915550506001600160a01b0382165f90815260046020526040812080548392906102b1908490610616565b90915550506040518181526001600160a01b038316907f0f6798a560793a54c3bcfe86a93cde1e73087d944c0ea20544137d41213968859060200160405180910390a26040518181526001600160a01b038316905f907fddf252ad1be2c89b69c2b068fc378daa952ba7f163c4a11628f55a4df523b3ef906020015b60405180910390a35050565b6006546001600160a01b0316331461037f5760405162461bcd60e51b81526020600482015260096024820152682737ba1037bbb732b960b91b604482015260640161026b565b600580546001600160a01b0319166001600160a01b0392909216919091179055565b6001805461019f906105ca565b6005546001600160a01b031633146103ff5760405162461bcd60e51b8152602060048201526014602482015273139bdd081c185e5c9bdb1b0818dbdb9d1c9858dd60621b604482015260640161026b565b6001600160a01b0382165f9081526004602052604090205481111561045d5760405162461bcd60e51b8152602060048201526014602482015273496e73756666696369656e742062616c616e636560601b604482015260640161026b565b6001600160a01b0382165f908152600460205260408120805483929061048490849061062f565b925050819055508060035f82825461049c919061062f565b90915550506040518181526001600160a01b038316907fcc16f5dbb4873280815c1ee09dbd06736cffcc184412cf7a71a0fdb75d397ca59060200160405180910390a26040518181525f906001600160a01b038416907fddf252ad1be2c89b69c2b068fc378daa952ba7f163c4a11628f55a4df523b3ef9060200161032d565b5f6020808352835180828501525f5b818110156105475785810183015185820160400152820161052b565b505f604082860101526040601f19601f8301168501019250505092915050565b80356001600160a01b038116811461057d575f80fd5b919050565b5f8060408385031215610593575f80fd5b61059c83610567565b946020939093013593505050565b5f602082840312156105ba575f80fd5b6105c382610567565b9392505050565b600181811c908216806105de57607f821691505b6020821081036105fc57634e487b7160e01b5f52602260045260245ffd5b50919050565b634e487b7160e01b5f52601160045260245ffd5b8082018082111561062957610629610602565b92915050565b818103818111156106295761062961060256fea2646970667358221220c0ac9dc820527e088837116aed4d4145ce32923bdfbc811c92da451f4b580b6964736f6c63430008140033",
					"opcodes": "PUSH1 0xC0 PUSH1 0x40 MSTORE PUSH1 0xB PUSH1 0x80 SWAP1 DUP2 MSTORE PUSH11 0x14D3D5948810DC99591A5D PUSH1 0xAA SHL PUSH1 0xA0 MSTORE PUSH0 SWAP1 PUSH2 0x29 SWAP1 DUP3 PUSH2 0x11E JUMP JUMPDEST POP PUSH1 0x40 DUP1 MLOAD DUP1 DUP3 ADD SWAP1 SWAP2 MSTORE PUSH1 0x5 DUP2 MSTORE PUSH5 0x534F565243 PUSH1 0xD8 SHL PUSH1 0x20 DUP3 ADD MSTORE PUSH1 0x1 SWAP1 PUSH2 0x53 SWAP1 DUP3 PUSH2 0x11E JUMP JUMPDEST POP PUSH1 0x2 DUP1 SLOAD PUSH1 0xFF NOT AND PUSH1 0x12 OR SWAP1 SSTORE CALLVALUE DUP1 ISZERO PUSH2 0x6C JUMPI PUSH0 DUP1 REVERT JUMPDEST POP PUSH1 0x6 DUP1 SLOAD PUSH1 0x1 PUSH1 0x1 PUSH1 0xA0 SHL SUB NOT AND CALLER OR SWAP1 SSTORE PUSH2 0x1D9 JUMP JUMPDEST PUSH4 0x4E487B71 PUSH1 0xE0 SHL PUSH0 MSTORE PUSH1 0x41 PUSH1 0x4 MSTORE PUSH1 0x24 PUSH0 REVERT JUMPDEST PUSH1 0x1 DUP2 DUP2 SHR SWAP1 DUP3 AND DUP1 PUSH2 0xAC JUMPI PUSH1 0x7F DUP3 AND SWAP2 POP JUMPDEST PUSH1 0x20 DUP3 LT DUP2 SUB PUSH2 0xCA JUMPI PUSH4 0x4E487B71 PUSH1 0xE0 SHL PUSH0 MSTORE PUSH1 0x22 PUSH1 0x4 MSTORE PUSH1 0x24 PUSH0 REVERT JUMPDEST POP SWAP2 SWAP1 POP JUMP JUMPDEST PUSH1 0x1F DUP3 GT ISZERO PUSH2 0x119 JUMPI PUSH0 DUP2 DUP2 MSTORE PUSH1 0x20 DUP2 KECCAK256 PUSH1 0x1F DUP6 ADD PUSH1 0x5 SHR DUP2 ADD PUSH1 0x20 DUP7 LT ISZERO PUSH2 0xF6 JUMPI POP DUP1 JUMPDEST PUSH1 0x1F DUP6 ADD PUSH1 0x5 SHR DUP3 ADD SWAP2 POP JUMPDEST DUP2 DUP2 LT ISZERO PUSH2 0x115 JUMPI DUP3 DUP2 SSTORE PUSH1 0x1 ADD PUSH2 0x102 JUMP JUMPDEST POP POP POP JUMPDEST POP POP POP JUMP JUMPDEST DUP2 MLOAD PUSH1 0x1 PUSH1 0x1 PUSH1 0x40 SHL SUB DUP2 GT ISZERO PUSH2 0x137 JUMPI PUSH2 0x137 PUSH2 0x84 JUMP JUMPDEST PUSH2 0x14B DUP2 PUSH2 0x145 DUP5 SLOAD PUSH2 0x98 JUMP JUMPDEST DUP5 PUSH2 0xD0 JUMP JUMPDEST PUSH1 0x20 DUP1 PUSH1 0x1F DUP4 GT PUSH1 0x1 DUP2 EQ PUSH2 0x17E JUMPI PUSH0 DUP5 ISZERO PUSH2 0x167 JUMPI POP DUP6 DUP4 ADD MLOAD JUMPDEST PUSH0 NOT PUSH1 0x3 DUP7 SWAP1 SHL SHR NOT AND PUSH1 0x1 DUP6 SWAP1 SHL OR DUP6 SSTORE PUSH2 0x115 JUMP JUMPDEST PUSH0 DUP6 DUP2 MSTORE PUSH1 0x20 DUP2 KECCAK256 PUSH1 0x1F NOT DUP7 AND SWAP2 JUMPDEST DUP3 DUP2 LT ISZERO PUSH2 0x1AC JUMPI DUP9 DUP7 ADD MLOAD DUP3 SSTORE SWAP5 DUP5 ADD SWAP5 PUSH1 0x1 SWAP1 SWAP2 ADD SWAP1 DUP5 ADD PUSH2 0x18D JUMP JUMPDEST POP DUP6 DUP3 LT ISZERO PUSH2 0x1C9 JUMPI DUP8 DUP6 ADD MLOAD PUSH0 NOT PUSH1 0x3 DUP9 SWAP1 SHL PUSH1 0xF8 AND SHR NOT AND DUP2 SSTORE JUMPDEST POP POP POP POP POP PUSH1 0x1 SWAP1 DUP2 SHL ADD SWAP1 SSTORE POP JUMP JUMPDEST PUSH2 0x678 DUP1 PUSH2 0x1E6 PUSH0 CODECOPY PUSH0 RETURN INVALID PUSH1 0x80 PUSH1 0x40 MSTORE CALLVALUE DUP1 ISZERO PUSH2 0xF JUMPI PUSH0 DUP1 REVERT JUMPDEST POP PUSH1 0x4 CALLDATASIZE LT PUSH2 0x9B JUMPI PUSH0 CALLDATALOAD PUSH1 0xE0 SHR DUP1 PUSH4 0x70A08231 GT PUSH2 0x63 JUMPI DUP1 PUSH4 0x70A08231 EQ PUSH2 0x11B JUMPI DUP1 PUSH4 0x8DA5CB5B EQ PUSH2 0x13A JUMPI DUP1 PUSH4 0x95D89B41 EQ PUSH2 0x165 JUMPI DUP1 PUSH4 0x9DC29FAC EQ PUSH2 0x16D JUMPI DUP1 PUSH4 0xD0020586 EQ PUSH2 0x180 JUMPI PUSH0 DUP1 REVERT JUMPDEST DUP1 PUSH4 0x6FDDE03 EQ PUSH2 0x9F JUMPI DUP1 PUSH4 0x18160DDD EQ PUSH2 0xBD JUMPI DUP1 PUSH4 0x313CE567 EQ PUSH2 0xD4 JUMPI DUP1 PUSH4 0x40C10F19 EQ PUSH2 0xF3 JUMPI DUP1 PUSH4 0x5DF3F614 EQ PUSH2 0x108 JUMPI JUMPDEST PUSH0 DUP1 REVERT JUMPDEST PUSH2 0xA7 PUSH2 0x193 JUMP JUMPDEST PUSH1 0x40 MLOAD PUSH2 0xB4 SWAP2 SWAP1 PUSH2 0x51C JUMP JUMPDEST PUSH1 0x40 MLOAD DUP1 SWAP2 SUB SWAP1 RETURN JUMPDEST PUSH2 0xC6 PUSH1 0x3 SLOAD DUP2 JUMP JUMPDEST PUSH1 0x40 MLOAD SWAP1 DUP2 MSTORE PUSH1 0x20 ADD PUSH2 0xB4 JUMP JUMPDEST PUSH1 0x2 SLOAD PUSH2 0xE1 SWAP1 PUSH1 0xFF AND DUP2 JUMP JUMPDEST PUSH1 0x40 MLOAD PUSH1 0xFF SWAP1 SWAP2 AND DUP2 MSTORE PUSH1 0x20 ADD PUSH2 0xB4 JUMP JUMPDEST PUSH2 0x106 PUSH2 0x101 CALLDATASIZE PUSH1 0x4 PUSH2 0x582 JUMP JUMPDEST PUSH2 0x21E JUMP JUMPDEST STOP JUMPDEST PUSH2 0x106 PUSH2 0x116 CALLDATASIZE PUSH1 0x4 PUSH2 0x5AA JUMP JUMPDEST PUSH2 0x339 JUMP JUMPDEST PUSH2 0xC6 PUSH2 0x129 CALLDATASIZE PUSH1 0x4 PUSH2 0x5AA JUMP JUMPDEST PUSH1 0x4 PUSH1 0x20 MSTORE PUSH0 SWAP1 DUP2 MSTORE PUSH1 0x40 SWAP1 KECCAK256 SLOAD DUP2 JUMP JUMPDEST PUSH1 0x6 SLOAD PUSH2 0x14D SWAP1 PUSH1 0x1 PUSH1 0x1 PUSH1 0xA0 SHL SUB AND DUP2 JUMP JUMPDEST PUSH1 0x40 MLOAD PUSH1 0x1 PUSH1 0x1 PUSH1 0xA0 SHL SUB SWAP1 SWAP2 AND DUP2 MSTORE PUSH1 0x20 ADD PUSH2 0xB4 JUMP JUMPDEST PUSH2 0xA7 PUSH2 0x3A1 JUMP JUMPDEST PUSH2 0x106 PUSH2 0x17B CALLDATASIZE PUSH1 0x4 PUSH2 0x582 JUMP JUMPDEST PUSH2 0x3AE JUMP JUMPDEST PUSH1 0x5 SLOAD PUSH2 0x14D SWAP1 PUSH1 0x1 PUSH1 0x1 PUSH1 0xA0 SHL SUB AND DUP2 JUMP JUMPDEST PUSH0 DUP1 SLOAD PUSH2 0x19F SWAP1 PUSH2 0x5CA JUMP JUMPDEST DUP1 PUSH1 0x1F ADD PUSH1 0x20 DUP1 SWAP2 DIV MUL PUSH1 0x20 ADD PUSH1 0x40 MLOAD SWAP1 DUP2 ADD PUSH1 0x40 MSTORE DUP1 SWAP3 SWAP2 SWAP1 DUP2 DUP2 MSTORE PUSH1 0x20 ADD DUP3 DUP1 SLOAD PUSH2 0x1CB SWAP1 PUSH2 0x5CA JUMP JUMPDEST DUP1 ISZERO PUSH2 0x216 JUMPI DUP1 PUSH1 0x1F LT PUSH2 0x1ED JUMPI PUSH2 0x100 DUP1 DUP4 SLOAD DIV MUL DUP4 MSTORE SWAP2 PUSH1 0x20 ADD SWAP2 PUSH2 0x216 JUMP JUMPDEST DUP3 ADD SWAP2 SWAP1 PUSH0 MSTORE PUSH1 0x20 PUSH0 KECCAK256 SWAP1 JUMPDEST DUP2 SLOAD DUP2 MSTORE SWAP1 PUSH1 0x1 ADD SWAP1 PUSH1 0x20 ADD DUP1 DUP4 GT PUSH2 0x1F9 JUMPI DUP3 SWAP1 SUB PUSH1 0x1F AND DUP3 ADD SWAP2 JUMPDEST POP POP POP POP POP DUP2 JUMP JUMPDEST PUSH1 0x5 SLOAD PUSH1 0x1 PUSH1 0x1 PUSH1 0xA0 SHL SUB AND CALLER EQ PUSH2 0x274 JUMPI PUSH1 0x40 MLOAD PUSH3 0x461BCD PUSH1 0xE5 SHL DUP2 MSTORE PUSH1 0x20 PUSH1 0x4 DUP3 ADD MSTORE PUSH1 0x14 PUSH1 0x24 DUP3 ADD MSTORE PUSH20 0x139BDD081C185E5C9BDB1B0818DBDB9D1C9858DD PUSH1 0x62 SHL PUSH1 0x44 DUP3 ADD MSTORE PUSH1 0x64 ADD JUMPDEST PUSH1 0x40 MLOAD DUP1 SWAP2 SUB SWAP1 REVERT JUMPDEST DUP1 PUSH1 0x3 PUSH0 DUP3 DUP3 SLOAD PUSH2 0x285 SWAP2 SWAP1 PUSH2 0x616 JUMP JUMPDEST SWAP1 SWAP2 SSTORE POP POP PUSH1 0x1 PUSH1 0x1 PUSH1 0xA0 SHL SUB DUP3 AND PUSH0 SWAP1 DUP2 MSTORE PUSH1 0x4 PUSH1 0x20 MSTORE PUSH1 0x40 DUP2 KECCAK256 DUP1 SLOAD DUP4 SWAP3 SWAP1 PUSH2 0x2B1 SWAP1 DUP5 SWAP1 PUSH2 0x616 JUMP JUMPDEST SWAP1 SWAP2 SSTORE POP POP PUSH1 0x40 MLOAD DUP2 DUP2 MSTORE PUSH1 0x1 PUSH1 0x1 PUSH1 0xA0 SHL SUB DUP4 AND SWAP1 PUSH32 0xF6798A560793A54C3BCFE86A93CDE1E73087D944C0EA20544137D4121396885 SWAP1 PUSH1 0x20 ADD PUSH1 0x40 MLOAD DUP1 SWAP2 SUB SWAP1 LOG2 PUSH1 0x40 MLOAD DUP2 DUP2 MSTORE PUSH1 0x1 PUSH1 0x1 PUSH1 0xA0 SHL SUB DUP4 AND SWAP1 PUSH0 SWAP1 PUSH32 0xDDF252AD1BE2C89B69C2B068FC378DAA952BA7F163C4A11628F55A4DF523B3EF SWAP1 PUSH1 0x20 ADD JUMPDEST PUSH1 0x40 MLOAD DUP1 SWAP2 SUB SWAP1 LOG3 POP POP JUMP JUMPDEST PUSH1 0x6 SLOAD PUSH1 0x1 PUSH1 0x1 PUSH1 0xA0 SHL SUB AND CALLER EQ PUSH2 0x37F JUMPI PUSH1 0x40 MLOAD PUSH3 0x461BCD PUSH1 0xE5 SHL DUP2 MSTORE PUSH1 0x20 PUSH1 0x4 DUP3 ADD MSTORE PUSH1 0x9 PUSH1 0x24 DUP3 ADD MSTORE PUSH9 0x2737BA1037BBB732B9 PUSH1 0xB9 SHL PUSH1 0x44 DUP3 ADD MSTORE PUSH1 0x64 ADD PUSH2 0x26B JUMP JUMPDEST PUSH1 0x5 DUP1 SLOAD PUSH1 0x1 PUSH1 0x1 PUSH1 0xA0 SHL SUB NOT AND PUSH1 0x1 PUSH1 0x1 PUSH1 0xA0 SHL SUB SWAP3 SWAP1 SWAP3 AND SWAP2 SWAP1 SWAP2 OR SWAP1 SSTORE JUMP JUMPDEST PUSH1 0x1 DUP1 SLOAD PUSH2 0x19F SWAP1 PUSH2 0x5CA JUMP JUMPDEST PUSH1 0x5 SLOAD PUSH1 0x1 PUSH1 0x1 PUSH1 0xA0 SHL SUB AND CALLER EQ PUSH2 0x3FF JUMPI PUSH1 0x40 MLOAD PUSH3 0x461BCD PUSH1 0xE5 SHL DUP2 MSTORE PUSH1 0x20 PUSH1 0x4 DUP3 ADD MSTORE PUSH1 0x14 PUSH1 0x24 DUP3 ADD MSTORE PUSH20 0x139BDD081C185E5C9BDB1B0818DBDB9D1C9858DD PUSH1 0x62 SHL PUSH1 0x44 DUP3 ADD MSTORE PUSH1 0x64 ADD PUSH2 0x26B JUMP JUMPDEST PUSH1 0x1 PUSH1 0x1 PUSH1 0xA0 SHL SUB DUP3 AND PUSH0 SWAP1 DUP2 MSTORE PUSH1 0x4 PUSH1 0x20 MSTORE PUSH1 0x40 SWAP1 KECCAK256 SLOAD DUP2 GT ISZERO PUSH2 0x45D JUMPI PUSH1 0x40 MLOAD PUSH3 0x461BCD PUSH1 0xE5 SHL DUP2 MSTORE PUSH1 0x20 PUSH1 0x4 DUP3 ADD MSTORE PUSH1 0x14 PUSH1 0x24 DUP3 ADD MSTORE PUSH20 0x496E73756666696369656E742062616C616E6365 PUSH1 0x60 SHL PUSH1 0x44 DUP3 ADD MSTORE PUSH1 0x64 ADD PUSH2 0x26B JUMP JUMPDEST PUSH1 0x1 PUSH1 0x1 PUSH1 0xA0 SHL SUB DUP3 AND PUSH0 SWAP1 DUP2 MSTORE PUSH1 0x4 PUSH1 0x20 MSTORE PUSH1 0x40 DUP2 KECCAK256 DUP1 SLOAD DUP4 SWAP3 SWAP1 PUSH2 0x484 SWAP1 DUP5 SWAP1 PUSH2 0x62F JUMP JUMPDEST SWAP3 POP POP DUP2 SWAP1 SSTORE POP DUP1 PUSH1 0x3 PUSH0 DUP3 DUP3 SLOAD PUSH2 0x49C SWAP2 SWAP1 PUSH2 0x62F JUMP JUMPDEST SWAP1 SWAP2 SSTORE POP POP PUSH1 0x40 MLOAD DUP2 DUP2 MSTORE PUSH1 0x1 PUSH1 0x1 PUSH1 0xA0 SHL SUB DUP4 AND SWAP1 PUSH32 0xCC16F5DBB4873280815C1EE09DBD06736CFFCC184412CF7A71A0FDB75D397CA5 SWAP1 PUSH1 0x20 ADD PUSH1 0x40 MLOAD DUP1 SWAP2 SUB SWAP1 LOG2 PUSH1 0x40 MLOAD DUP2 DUP2 MSTORE PUSH0 SWAP1 PUSH1 0x1 PUSH1 0x1 PUSH1 0xA0 SHL SUB DUP5 AND SWAP1 PUSH32 0xDDF252AD1BE2C89B69C2B068FC378DAA952BA7F163C4A11628F55A4DF523B3EF SWAP1 PUSH1 0x20 ADD PUSH2 0x32D JUMP JUMPDEST PUSH0 PUSH1 0x20 DUP1 DUP4 MSTORE DUP4 MLOAD DUP1 DUP3 DUP6 ADD MSTORE PUSH0 JUMPDEST DUP2 DUP2 LT ISZERO PUSH2 0x547 JUMPI DUP6 DUP2 ADD DUP4 ADD MLOAD DUP6 DUP3 ADD PUSH1 0x40 ADD MSTORE DUP3 ADD PUSH2 0x52B JUMP JUMPDEST POP PUSH0 PUSH1 0x40 DUP3 DUP7 ADD ADD MSTORE PUSH1 0x40 PUSH1 0x1F NOT PUSH1 0x1F DUP4 ADD AND DUP6 ADD ADD SWAP3 POP POP POP SWAP3 SWAP2 POP POP JUMP JUMPDEST DUP1 CALLDATALOAD PUSH1 0x1 PUSH1 0x1 PUSH1 0xA0 SHL SUB DUP2 AND DUP2 EQ PUSH2 0x57D JUMPI PUSH0 DUP1 REVERT JUMPDEST SWAP2 SWAP1 POP JUMP JUMPDEST PUSH0 DUP1 PUSH1 0x40 DUP4 DUP6 SUB SLT ISZERO PUSH2 0x593 JUMPI PUSH0 DUP1 REVERT JUMPDEST PUSH2 0x59C DUP4 PUSH2 0x567 JUMP JUMPDEST SWAP5 PUSH1 0x20 SWAP4 SWAP1 SWAP4 ADD CALLDATALOAD SWAP4 POP POP POP JUMP JUMPDEST PUSH0 PUSH1 0x20 DUP3 DUP5 SUB SLT ISZERO PUSH2 0x5BA JUMPI PUSH0 DUP1 REVERT JUMPDEST PUSH2 0x5C3 DUP3 PUSH2 0x567 JUMP JUMPDEST SWAP4 SWAP3 POP POP POP JUMP JUMPDEST PUSH1 0x1 DUP2 DUP2 SHR SWAP1 DUP3 AND DUP1 PUSH2 0x5DE JUMPI PUSH1 0x7F DUP3 AND SWAP2 POP JUMPDEST PUSH1 0x20 DUP3 LT DUP2 SUB PUSH2 0x5FC JUMPI PUSH4 0x4E487B71 PUSH1 0xE0 SHL PUSH0 MSTORE PUSH1 0x22 PUSH1 0x4 MSTORE PUSH1 0x24 PUSH0 REVERT JUMPDEST POP SWAP2 SWAP1 POP JUMP JUMPDEST PUSH4 0x4E487B71 PUSH1 0xE0 SHL PUSH0 MSTORE PUSH1 0x11 PUSH1 0x4 MSTORE PUSH1 0x24 PUSH0 REVERT JUMPDEST DUP1 DUP3 ADD DUP1 DUP3 GT ISZERO PUSH2 0x629 JUMPI PUSH2 0x629 PUSH2 0x602 JUMP JUMPDEST SWAP3 SWAP2 POP POP JUMP JUMPDEST DUP2 DUP2 SUB DUP2 DUP2 GT ISZERO PUSH2 0x629 JUMPI PUSH2 0x629 PUSH2 0x602 JUMP INVALID LOG2 PUSH5 0x6970667358 0x22 SLT KECCAK256 0xC0 0xAC SWAP14 0xC8 KECCAK256 MSTORE PUSH31 0x88837116AED4D4145CE32923BDFBC811C92DA451F4B580B6964736F6C6343 STOP ADDMOD EQ STOP CALLER "
				},
				"gasEstimates": {
					"creation": {
						"codeDepositCost": "331200",
						"executionCost": "infinite",
						"totalCost": "infinite"
					},
					"external": {
						"balanceOf(address)": "2516",
						"burn(address,uint256)": "infinite",
						"decimals()": "2357",
						"mint(address,uint256)": "infinite",
						"name()": "infinite",
						"owner()": "2358",
						"payrollContract()": "2424",
						"setPayrollContract(address)": "26798",
						"symbol()": "infinite",
						"totalSupply()": "2317"
					}
				},
				"methodIdentifiers": {
					"balanceOf(address)": "70a08231",
					"burn(address,uint256)": "9dc29fac",
					"decimals()": "313ce567",
					"mint(address,uint256)": "40c10f19",
					"name()": "06fdde03",
					"owner()": "8da5cb5b",
					"payrollContract()": "d0020586",
					"setPayrollContract(address)": "5df3f614",
					"symbol()": "95d89b41",
					"totalSupply()": "18160ddd"
				}
			},
			"storageLayout": {
				"storage": [
					{
						"astId": 170,
						"contract": "SOVRCredit.sol:SOVRCredit",
						"label": "name",
						"offset": 0,
						"slot": "0",
						"type": "t_string_storage"
					},
					{
						"astId": 173,
						"contract": "SOVRCredit.sol:SOVRCredit",
						"label": "symbol",
						"offset": 0,
						"slot": "1",
						"type": "t_string_storage"
					},
					{
						"astId": 176,
						"contract": "SOVRCredit.sol:SOVRCredit",
						"label": "decimals",
						"offset": 0,
						"slot": "2",
						"type": "t_uint8"
					},
					{
						"astId": 178,
						"contract": "SOVRCredit.sol:SOVRCredit",
						"label": "totalSupply",
						"offset": 0,
						"slot": "3",
						"type": "t_uint256"
					},
					{
						"astId": 182,
						"contract": "SOVRCredit.sol:SOVRCredit",
						"label": "balanceOf",
						"offset": 0,
						"slot": "4",
						"type": "t_mapping(t_address,t_uint256)"
					},
					{
						"astId": 184,
						"contract": "SOVRCredit.sol:SOVRCredit",
						"label": "payrollContract",
						"offset": 0,
						"slot": "5",
						"type": "t_address"
					},
					{
						"astId": 186,
						"contract": "SOVRCredit.sol:SOVRCredit",
						"label": "owner",
						"offset": 0,
						"slot": "6",
						"type": "t_address"
					}
				],
				"types": {
					"t_address": {
						"encoding": "inplace",
						"label": "address",
						"numberOfBytes": "20"
					},
					"t_mapping(t_address,t_uint256)": {
						"encoding": "mapping",
						"key": "t_address",
						"label": "mapping(address => uint256)",
						"numberOfBytes": "32",
						"value": "t_uint256"
					},
					"t_string_storage": {
						"encoding": "bytes",
						"label": "string",
						"numberOfBytes": "32"
					},
					"t_uint256": {
						"encoding": "inplace",
						"label": "uint256",
						"numberOfBytes": "32"
					},
					"t_uint8": {
						"encoding": "inplace",
						"label": "uint8",
						"numberOfBytes": "1"
					}
				}
			},
			"userdoc": {
				"kind": "user",
				"methods": {},
				"version": 1
			}
		}
	}
}