{
	"AutoPayroll.sol": {
		"AutoPayroll": {
			"abi": [
				{
					"inputs": [
						{
							"internalType": "address",
							"name": "_sovr",
							"type": "address"
						}
					],
					"stateMutability": "nonpayable",
					"type": "constructor"
				},
				{
					"anonymous": false,
					"inputs": [
						{
							"indexed": true,
							"internalType": "address",
							"name": "employee",
							"type": "address"
						},
						{
							"indexed": false,
							"internalType": "uint256",
							"name": "amount",
							"type": "uint256"
						},
						{
							"indexed": false,
							"internalType": "uint256",
							"name": "ts",
							"type": "uint256"
						}
					],
					"name": "SalaryClaimed",
					"type": "event"
				},
				{
					"anonymous": false,
					"inputs": [
						{
							"indexed": true,
							"internalType": "address",
							"name": "employee",
							"type": "address"
						},
						{
							"indexed": false,
							"internalType": "uint256",
							"name": "amount",
							"type": "uint256"
						}
					],
					"name": "SalaryFunded",
					"type": "event"
				},
				{
					"anonymous": false,
					"inputs": [
						{
							"indexed": true,
							"internalType": "address",
							"name": "employee",
							"type": "address"
						},
						{
							"indexed": false,
							"internalType": "uint256",
							"name": "amount",
							"type": "uint256"
						},
						{
							"indexed": false,
							"internalType": "uint256",
							"name": "ts",
							"type": "uint256"
						}
					],
					"name": "SalaryReconciled",
					"type": "event"
				},
				{
					"inputs": [
						{
							"internalType": "uint256",
							"name": "_amount",
							"type": "uint256"
						}
					],
					"name": "claimSalary",
					"outputs": [],
					"stateMutability": "nonpayable",
					"type": "function"
				},
				{
					"inputs": [
						{
							"internalType": "address",
							"name": "",
							"type": "address"
						}
					],
					"name": "employees",
					"outputs": [
						{
							"internalType": "uint256",
							"name": "salaryOwed",
							"type": "uint256"
						},
						{
							"internalType": "uint256",
							"name": "lastClaimTs",
							"type": "uint256"
						}
					],
					"stateMutability": "view",
					"type": "function"
				},
				{
					"inputs": [
						{
							"internalType": "address",
							"name": "_employee",
							"type": "address"
						},
						{
							"internalType": "uint256",
							"name": "_amount",
							"type": "uint256"
						}
					],
					"name": "fundSalary",
					"outputs": [],
					"stateMutability": "nonpayable",
					"type": "function"
				},
				{
					"inputs": [],
					"name": "owner",
					"outputs": [
						{
							"internalType": "address",
							"name": "",
							"type": "address"
						}
					],
					"stateMutability": "view",
					"type": "function"
				},
				{
					"inputs": [
						{
							"internalType": "address",
							"name": "_employee",
							"type": "address"
						},
						{
							"internalType": "uint256",
							"name": "_amount",
							"type": "uint256"
						}
					],
					"name": "reconcile",
					"outputs": [],
					"stateMutability": "nonpayable",
					"type": "function"
				},
				{
					"inputs": [],
					"name": "sovr",
					"outputs": [
						{
							"internalType": "contract SOVRCredit",
							"name": "",
							"type": "address"
						}
					],
					"stateMutability": "view",
					"type": "function"
				}
			],
			"devdoc": {
				"kind": "dev",
				"methods": {},
				"version": 1
			},
			"evm": {
				"assembly": "    /* \"AutoPayroll.sol\":91:1522  contract AutoPayroll {... */\n  mstore(0x40, 0x80)\n    /* \"AutoPayroll.sol\":653:752  constructor(address _sovr) {... */\n  callvalue\n  dup1\n  iszero\n  tag_1\n  jumpi\n  0x00\n  dup1\n  revert\ntag_1:\n  pop\n  mload(0x40)\n  sub(codesize, bytecodeSize)\n  dup1\n  bytecodeSize\n  dup4\n  codecopy\n  dup2\n  add\n  0x40\n  dup2\n  swap1\n  mstore\n  tag_2\n  swap2\n  tag_3\n  jump\t// in\ntag_2:\n    /* \"AutoPayroll.sol\":691:696  owner */\n  0x01\n    /* \"AutoPayroll.sol\":691:709  owner = msg.sender */\n  dup1\n  sload\n    /* \"AutoPayroll.sol\":699:709  msg.sender */\n  caller\n  not(sub(shl(0xa0, 0x01), 0x01))\n    /* \"AutoPayroll.sol\":691:709  owner = msg.sender */\n  swap2\n  dup3\n  and\n  or\n  swap1\n  swap2\n  sstore\n    /* \"AutoPayroll.sol\":720:724  sovr */\n  0x02\n    /* \"AutoPayroll.sol\":720:744  sovr = SOVRCredit(_sovr) */\n  dup1\n  sload\n  swap1\n  swap2\n  and\n  sub(shl(0xa0, 0x01), 0x01)\n  swap3\n  swap1\n  swap3\n  and\n  swap2\n  swap1\n  swap2\n  or\n  swap1\n  sstore\n    /* \"AutoPayroll.sol\":91:1522  contract AutoPayroll {... */\n  jump(tag_7)\n    /* \"#utility.yul\":14:304   */\ntag_3:\n    /* \"#utility.yul\":84:90   */\n  0x00\n    /* \"#utility.yul\":137:139   */\n  0x20\n    /* \"#utility.yul\":125:134   */\n  dup3\n    /* \"#utility.yul\":116:123   */\n  dup5\n    /* \"#utility.yul\":112:135   */\n  sub\n    /* \"#utility.yul\":108:140   */\n  slt\n    /* \"#utility.yul\":105:157   */\n  iszero\n  tag_9\n  jumpi\n    /* \"#utility.yul\":153:154   */\n  0x00\n    /* \"#utility.yul\":150:151   */\n  dup1\n    /* \"#utility.yul\":143:155   */\n  revert\n    /* \"#utility.yul\":105:157   */\ntag_9:\n    /* \"#utility.yul\":179:195   */\n  dup2\n  mload\n  sub(shl(0xa0, 0x01), 0x01)\n    /* \"#utility.yul\":224:255   */\n  dup2\n  and\n    /* \"#utility.yul\":214:256   */\n  dup2\n  eq\n    /* \"#utility.yul\":204:274   */\n  tag_10\n  jumpi\n    /* \"#utility.yul\":270:271   */\n  0x00\n    /* \"#utility.yul\":267:268   */\n  dup1\n    /* \"#utility.yul\":260:272   */\n  revert\n    /* \"#utility.yul\":204:274   */\ntag_10:\n    /* \"#utility.yul\":293:298   */\n  swap4\n    /* \"#utility.yul\":14:304   */\n  swap3\n  pop\n  pop\n  pop\n  jump\t// out\ntag_7:\n    /* \"AutoPayroll.sol\":91:1522  contract AutoPayroll {... */\n  dataSize(sub_0)\n  dup1\n  dataOffset(sub_0)\n  0x00\n  codecopy\n  0x00\n  return\nstop\n\nsub_0: assembly {\n        /* \"AutoPayroll.sol\":91:1522  contract AutoPayroll {... */\n      mstore(0x40, 0x80)\n      callvalue\n      dup1\n      iszero\n      tag_1\n      jumpi\n      0x00\n      dup1\n      revert\n    tag_1:\n      pop\n      jumpi(tag_2, lt(calldatasize, 0x04))\n      shr(0xe0, calldataload(0x00))\n      dup1\n      0x49ffe225\n      eq\n      tag_3\n      jumpi\n      dup1\n      0x8da5cb5b\n      eq\n      tag_4\n      jumpi\n      dup1\n      0xa60c8eaa\n      eq\n      tag_5\n      jumpi\n      dup1\n      0xb097e202\n      eq\n      tag_6\n      jumpi\n      dup1\n      0xd0678947\n      eq\n      tag_7\n      jumpi\n      dup1\n      0xe49318e3\n      eq\n      tag_8\n      jumpi\n    tag_2:\n      0x00\n      dup1\n      revert\n        /* \"AutoPayroll.sol\":992:1320  function claimSalary(uint256 _amount) external {... */\n    tag_3:\n      tag_9\n      tag_10\n      calldatasize\n      0x04\n      tag_11\n      jump\t// in\n    tag_10:\n      tag_12\n      jump\t// in\n    tag_9:\n      stop\n        /* \"AutoPayroll.sol\":262:282  address public owner */\n    tag_4:\n      sload(0x01)\n      tag_13\n      swap1\n      sub(shl(0xa0, 0x01), 0x01)\n      and\n      dup2\n      jump\n    tag_13:\n      mload(0x40)\n      sub(shl(0xa0, 0x01), 0x01)\n        /* \"#utility.yul\":363:395   */\n      swap1\n      swap2\n      and\n        /* \"#utility.yul\":345:396   */\n      dup2\n      mstore\n        /* \"#utility.yul\":333:335   */\n      0x20\n        /* \"#utility.yul\":318:336   */\n      add\n        /* \"AutoPayroll.sol\":262:282  address public owner */\n    tag_15:\n      mload(0x40)\n      dup1\n      swap2\n      sub\n      swap1\n      return\n        /* \"AutoPayroll.sol\":1328:1519  function reconcile(address _employee, uint256 _amount) external onlyOwner {... */\n    tag_5:\n      tag_9\n      tag_18\n      calldatasize\n      0x04\n      tag_19\n      jump\t// in\n    tag_18:\n      tag_20\n      jump\t// in\n        /* \"AutoPayroll.sol\":289:311  SOVRCredit public sovr */\n    tag_6:\n      sload(0x02)\n      tag_13\n      swap1\n      sub(shl(0xa0, 0x01), 0x01)\n      and\n      dup2\n      jump\n        /* \"AutoPayroll.sol\":210:255  mapping(address => Employee) public employees */\n    tag_7:\n      tag_25\n      tag_26\n      calldatasize\n      0x04\n      tag_27\n      jump\t// in\n    tag_26:\n      0x00\n      0x20\n      dup2\n      swap1\n      mstore\n      swap1\n      dup2\n      mstore\n      0x40\n      swap1\n      keccak256\n      dup1\n      sload\n      0x01\n      swap1\n      swap2\n      add\n      sload\n      dup3\n      jump\n    tag_25:\n      0x40\n      dup1\n      mload\n        /* \"#utility.yul\":1435:1460   */\n      swap3\n      dup4\n      mstore\n        /* \"#utility.yul\":1491:1493   */\n      0x20\n        /* \"#utility.yul\":1476:1494   */\n      dup4\n      add\n        /* \"#utility.yul\":1469:1503   */\n      swap2\n      swap1\n      swap2\n      mstore\n        /* \"#utility.yul\":1408:1426   */\n      add\n        /* \"AutoPayroll.sol\":210:255  mapping(address => Employee) public employees */\n      tag_15\n        /* \"#utility.yul\":1261:1509   */\n      jump\n        /* \"AutoPayroll.sol\":760:984  function fundSalary(address _employee, uint256 _amount) external onlyOwner {... */\n    tag_8:\n      tag_9\n      tag_32\n      calldatasize\n      0x04\n      tag_19\n      jump\t// in\n    tag_32:\n      tag_33\n      jump\t// in\n        /* \"AutoPayroll.sol\":992:1320  function claimSalary(uint256 _amount) external {... */\n    tag_12:\n        /* \"AutoPayroll.sol\":1083:1093  msg.sender */\n      caller\n        /* \"AutoPayroll.sol\":1050:1070  Employee storage emp */\n      0x00\n        /* \"AutoPayroll.sol\":1073:1094  employees[msg.sender] */\n      swap1\n      dup2\n      mstore\n      0x20\n      dup2\n      swap1\n      mstore\n      0x40\n      swap1\n      keccak256\n        /* \"AutoPayroll.sol\":1113:1127  emp.salaryOwed */\n      dup1\n      sload\n        /* \"AutoPayroll.sol\":1113:1138  emp.salaryOwed >= _amount */\n      dup3\n      gt\n      iszero\n        /* \"AutoPayroll.sol\":1105:1165  require(emp.salaryOwed >= _amount, \"Not enough salary owed\") */\n      tag_35\n      jumpi\n      mload(0x40)\n      shl(0xe5, 0x461bcd)\n      dup2\n      mstore\n        /* \"#utility.yul\":1716:1718   */\n      0x20\n        /* \"AutoPayroll.sol\":1105:1165  require(emp.salaryOwed >= _amount, \"Not enough salary owed\") */\n      0x04\n      dup3\n      add\n        /* \"#utility.yul\":1698:1719   */\n      mstore\n        /* \"#utility.yul\":1755:1757   */\n      0x16\n        /* \"#utility.yul\":1735:1753   */\n      0x24\n      dup3\n      add\n        /* \"#utility.yul\":1728:1758   */\n      mstore\n      shl(0x52, 0x139bdd08195b9bdd59da081cd85b185c9e481bddd959)\n        /* \"#utility.yul\":1774:1792   */\n      0x44\n      dup3\n      add\n        /* \"#utility.yul\":1767:1819   */\n      mstore\n        /* \"#utility.yul\":1836:1854   */\n      0x64\n      add\n        /* \"AutoPayroll.sol\":1105:1165  require(emp.salaryOwed >= _amount, \"Not enough salary owed\") */\n    tag_36:\n      mload(0x40)\n      dup1\n      swap2\n      sub\n      swap1\n      revert\n    tag_35:\n        /* \"AutoPayroll.sol\":1194:1201  _amount */\n      dup2\n        /* \"AutoPayroll.sol\":1176:1179  emp */\n      dup2\n        /* \"AutoPayroll.sol\":1176:1190  emp.salaryOwed */\n      0x00\n      add\n      0x00\n        /* \"AutoPayroll.sol\":1176:1201  emp.salaryOwed -= _amount */\n      dup3\n      dup3\n      sload\n      tag_38\n      swap2\n      swap1\n      tag_39\n      jump\t// in\n    tag_38:\n      swap1\n      swap2\n      sstore\n      pop\n      pop\n        /* \"AutoPayroll.sol\":1230:1245  block.timestamp */\n      timestamp\n        /* \"AutoPayroll.sol\":1212:1227  emp.lastClaimTs */\n      0x01\n      dup3\n      add\n        /* \"AutoPayroll.sol\":1212:1245  emp.lastClaimTs = block.timestamp */\n      dup2\n      swap1\n      sstore\n        /* \"AutoPayroll.sol\":1261:1312  SalaryClaimed(msg.sender, _amount, block.timestamp) */\n      mload(0x40)\n        /* \"AutoPayroll.sol\":1275:1285  msg.sender */\n      caller\n      swap2\n        /* \"AutoPayroll.sol\":1261:1312  SalaryClaimed(msg.sender, _amount, block.timestamp) */\n      0xcc2be5eca1cb6218903e37b0e975e4b82f9d3e0dceb9e15acaf7f70e580c67de\n      swap2\n      tag_40\n      swap2\n        /* \"AutoPayroll.sol\":1287:1294  _amount */\n      dup7\n        /* \"#utility.yul\":1435:1460   */\n      dup3\n      mstore\n        /* \"#utility.yul\":1491:1493   */\n      0x20\n        /* \"#utility.yul\":1476:1494   */\n      dup3\n      add\n        /* \"#utility.yul\":1469:1503   */\n      mstore\n        /* \"#utility.yul\":1423:1425   */\n      0x40\n        /* \"#utility.yul\":1408:1426   */\n      add\n      swap1\n        /* \"#utility.yul\":1261:1509   */\n      jump\n        /* \"AutoPayroll.sol\":1261:1312  SalaryClaimed(msg.sender, _amount, block.timestamp) */\n    tag_40:\n      mload(0x40)\n      dup1\n      swap2\n      sub\n      swap1\n      log2\n        /* \"AutoPayroll.sol\":1039:1320  {... */\n      pop\n        /* \"AutoPayroll.sol\":992:1320  function claimSalary(uint256 _amount) external {... */\n      pop\n      jump\t// out\n        /* \"AutoPayroll.sol\":1328:1519  function reconcile(address _employee, uint256 _amount) external onlyOwner {... */\n    tag_20:\n        /* \"AutoPayroll.sol\":606:611  owner */\n      and(sub(shl(0xa0, 0x01), 0x01), sload(0x01))\n        /* \"AutoPayroll.sol\":592:602  msg.sender */\n      caller\n        /* \"AutoPayroll.sol\":592:611  msg.sender == owner */\n      eq\n        /* \"AutoPayroll.sol\":584:625  require(msg.sender == owner, \"Not owner\") */\n      tag_42\n      jumpi\n      mload(0x40)\n      shl(0xe5, 0x461bcd)\n      dup2\n      mstore\n        /* \"#utility.yul\":2332:2334   */\n      0x20\n        /* \"AutoPayroll.sol\":584:625  require(msg.sender == owner, \"Not owner\") */\n      0x04\n      dup3\n      add\n        /* \"#utility.yul\":2314:2335   */\n      mstore\n        /* \"#utility.yul\":2371:2372   */\n      0x09\n        /* \"#utility.yul\":2351:2369   */\n      0x24\n      dup3\n      add\n        /* \"#utility.yul\":2344:2373   */\n      mstore\n      shl(0xb9, 0x2737ba1037bbb732b9)\n        /* \"#utility.yul\":2389:2407   */\n      0x44\n      dup3\n      add\n        /* \"#utility.yul\":2382:2421   */\n      mstore\n        /* \"#utility.yul\":2438:2456   */\n      0x64\n      add\n        /* \"AutoPayroll.sol\":584:625  require(msg.sender == owner, \"Not owner\") */\n      tag_36\n        /* \"#utility.yul\":2130:2462   */\n      jump\n        /* \"AutoPayroll.sol\":584:625  require(msg.sender == owner, \"Not owner\") */\n    tag_42:\n        /* \"AutoPayroll.sol\":1413:1417  sovr */\n      sload(0x02)\n        /* \"AutoPayroll.sol\":1413:1442  sovr.burn(_employee, _amount) */\n      mload(0x40)\n      shl(0xe2, 0x2770a7eb)\n      dup2\n      mstore\n      sub(shl(0xa0, 0x01), 0x01)\n        /* \"#utility.yul\":2659:2691   */\n      dup5\n      dup2\n      and\n        /* \"AutoPayroll.sol\":1413:1442  sovr.burn(_employee, _amount) */\n      0x04\n      dup4\n      add\n        /* \"#utility.yul\":2641:2692   */\n      mstore\n        /* \"#utility.yul\":2708:2726   */\n      0x24\n      dup3\n      add\n        /* \"#utility.yul\":2701:2735   */\n      dup5\n      swap1\n      mstore\n        /* \"AutoPayroll.sol\":1413:1417  sovr */\n      swap1\n      swap2\n      and\n      swap1\n        /* \"AutoPayroll.sol\":1413:1422  sovr.burn */\n      0x9dc29fac\n      swap1\n        /* \"#utility.yul\":2614:2632   */\n      0x44\n      add\n        /* \"AutoPayroll.sol\":1413:1442  sovr.burn(_employee, _amount) */\n      0x00\n      mload(0x40)\n      dup1\n      dup4\n      sub\n      dup2\n      0x00\n      dup8\n      dup1\n      extcodesize\n      iszero\n      dup1\n      iszero\n      tag_48\n      jumpi\n      0x00\n      dup1\n      revert\n    tag_48:\n      pop\n      gas\n      call\n      iszero\n      dup1\n      iszero\n      tag_50\n      jumpi\n      returndatasize\n      0x00\n      dup1\n      returndatacopy\n      revert(0x00, returndatasize)\n    tag_50:\n      pop\n      pop\n        /* \"AutoPayroll.sol\":1458:1511  SalaryReconciled(_employee, _amount, block.timestamp) */\n      0x40\n      dup1\n      mload\n        /* \"#utility.yul\":1435:1460   */\n      dup5\n      dup2\n      mstore\n        /* \"AutoPayroll.sol\":1495:1510  block.timestamp */\n      timestamp\n        /* \"#utility.yul\":1491:1493   */\n      0x20\n        /* \"#utility.yul\":1476:1494   */\n      dup3\n      add\n        /* \"#utility.yul\":1469:1503   */\n      mstore\n      sub(shl(0xa0, 0x01), 0x01)\n        /* \"AutoPayroll.sol\":1458:1511  SalaryReconciled(_employee, _amount, block.timestamp) */\n      dup7\n      and\n      swap4\n      pop\n      0x015667182bd5f1720ef3dba482259f4c2e2e16b6ecd198e2fc9433786254e398\n      swap3\n      pop\n        /* \"#utility.yul\":1408:1426   */\n      add\n        /* \"AutoPayroll.sol\":1458:1511  SalaryReconciled(_employee, _amount, block.timestamp) */\n      tag_40\n        /* \"#utility.yul\":1261:1509   */\n      jump\n        /* \"AutoPayroll.sol\":760:984  function fundSalary(address _employee, uint256 _amount) external onlyOwner {... */\n    tag_33:\n        /* \"AutoPayroll.sol\":606:611  owner */\n      and(sub(shl(0xa0, 0x01), 0x01), sload(0x01))\n        /* \"AutoPayroll.sol\":592:602  msg.sender */\n      caller\n        /* \"AutoPayroll.sol\":592:611  msg.sender == owner */\n      eq\n        /* \"AutoPayroll.sol\":584:625  require(msg.sender == owner, \"Not owner\") */\n      tag_53\n      jumpi\n      mload(0x40)\n      shl(0xe5, 0x461bcd)\n      dup2\n      mstore\n        /* \"#utility.yul\":2332:2334   */\n      0x20\n        /* \"AutoPayroll.sol\":584:625  require(msg.sender == owner, \"Not owner\") */\n      0x04\n      dup3\n      add\n        /* \"#utility.yul\":2314:2335   */\n      mstore\n        /* \"#utility.yul\":2371:2372   */\n      0x09\n        /* \"#utility.yul\":2351:2369   */\n      0x24\n      dup3\n      add\n        /* \"#utility.yul\":2344:2373   */\n      mstore\n      shl(0xb9, 0x2737ba1037bbb732b9)\n        /* \"#utility.yul\":2389:2407   */\n      0x44\n      dup3\n      add\n        /* \"#utility.yul\":2382:2421   */\n      mstore\n        /* \"#utility.yul\":2438:2456   */\n      0x64\n      add\n        /* \"AutoPayroll.sol\":584:625  require(msg.sender == owner, \"Not owner\") */\n      tag_36\n        /* \"#utility.yul\":2130:2462   */\n      jump\n        /* \"AutoPayroll.sol\":584:625  require(msg.sender == owner, \"Not owner\") */\n    tag_53:\n      sub(shl(0xa0, 0x01), 0x01)\n        /* \"AutoPayroll.sol\":846:866  employees[_employee] */\n      dup3\n      and\n        /* \"AutoPayroll.sol\":846:855  employees */\n      0x00\n        /* \"AutoPayroll.sol\":846:866  employees[_employee] */\n      swap1\n      dup2\n      mstore\n      0x20\n      dup2\n      swap1\n      mstore\n      0x40\n      dup2\n      keccak256\n        /* \"AutoPayroll.sol\":846:888  employees[_employee].salaryOwed += _amount */\n      dup1\n      sload\n        /* \"AutoPayroll.sol\":881:888  _amount */\n      dup4\n      swap3\n        /* \"AutoPayroll.sol\":846:855  employees */\n      swap1\n        /* \"AutoPayroll.sol\":846:888  employees[_employee].salaryOwed += _amount */\n      tag_56\n      swap1\n        /* \"AutoPayroll.sol\":881:888  _amount */\n      dup5\n      swap1\n        /* \"AutoPayroll.sol\":846:888  employees[_employee].salaryOwed += _amount */\n      tag_57\n      jump\t// in\n    tag_56:\n      swap1\n      swap2\n      sstore\n      pop\n      pop\n        /* \"AutoPayroll.sol\":899:903  sovr */\n      sload(0x02)\n        /* \"AutoPayroll.sol\":899:928  sovr.mint(_employee, _amount) */\n      mload(0x40)\n      shl(0xe0, 0x40c10f19)\n      dup2\n      mstore\n      sub(shl(0xa0, 0x01), 0x01)\n        /* \"#utility.yul\":2659:2691   */\n      dup5\n      dup2\n      and\n        /* \"AutoPayroll.sol\":899:928  sovr.mint(_employee, _amount) */\n      0x04\n      dup4\n      add\n        /* \"#utility.yul\":2641:2692   */\n      mstore\n        /* \"#utility.yul\":2708:2726   */\n      0x24\n      dup3\n      add\n        /* \"#utility.yul\":2701:2735   */\n      dup5\n      swap1\n      mstore\n        /* \"AutoPayroll.sol\":899:903  sovr */\n      swap1\n      swap2\n      and\n      swap1\n        /* \"AutoPayroll.sol\":899:908  sovr.mint */\n      0x40c10f19\n      swap1\n        /* \"#utility.yul\":2614:2632   */\n      0x44\n      add\n        /* \"AutoPayroll.sol\":899:928  sovr.mint(_employee, _amount) */\n      0x00\n      mload(0x40)\n      dup1\n      dup4\n      sub\n      dup2\n      0x00\n      dup8\n      dup1\n      extcodesize\n      iszero\n      dup1\n      iszero\n      tag_59\n      jumpi\n      0x00\n      dup1\n      revert\n    tag_59:\n      pop\n      gas\n      call\n      iszero\n      dup1\n      iszero\n      tag_61\n      jumpi\n      returndatasize\n      0x00\n      dup1\n      returndatacopy\n      revert(0x00, returndatasize)\n    tag_61:\n      pop\n      pop\n      pop\n      pop\n        /* \"AutoPayroll.sol\":957:966  _employee */\n      dup2\n      sub(shl(0xa0, 0x01), 0x01)\n        /* \"AutoPayroll.sol\":944:976  SalaryFunded(_employee, _amount) */\n      and\n      0x142249200f1ce13c31606183a61f1e16ef72486fc1f2946f835f37c02a3bcbfd\n        /* \"AutoPayroll.sol\":968:975  _amount */\n      dup3\n        /* \"AutoPayroll.sol\":944:976  SalaryFunded(_employee, _amount) */\n      mload(0x40)\n      tag_40\n      swap2\n        /* \"#utility.yul\":3022:3047   */\n      dup2\n      mstore\n        /* \"#utility.yul\":3010:3012   */\n      0x20\n        /* \"#utility.yul\":2995:3013   */\n      add\n      swap1\n        /* \"#utility.yul\":2876:3053   */\n      jump\n        /* \"#utility.yul\":14:194   */\n    tag_11:\n        /* \"#utility.yul\":73:79   */\n      0x00\n        /* \"#utility.yul\":126:128   */\n      0x20\n        /* \"#utility.yul\":114:123   */\n      dup3\n        /* \"#utility.yul\":105:112   */\n      dup5\n        /* \"#utility.yul\":101:124   */\n      sub\n        /* \"#utility.yul\":97:129   */\n      slt\n        /* \"#utility.yul\":94:146   */\n      iszero\n      tag_68\n      jumpi\n        /* \"#utility.yul\":142:143   */\n      0x00\n        /* \"#utility.yul\":139:140   */\n      dup1\n        /* \"#utility.yul\":132:144   */\n      revert\n        /* \"#utility.yul\":94:146   */\n    tag_68:\n      pop\n        /* \"#utility.yul\":165:188   */\n      calldataload\n      swap2\n        /* \"#utility.yul\":14:194   */\n      swap1\n      pop\n      jump\t// out\n        /* \"#utility.yul\":407:580   */\n    tag_64:\n        /* \"#utility.yul\":475:495   */\n      dup1\n      calldataload\n      sub(shl(0xa0, 0x01), 0x01)\n        /* \"#utility.yul\":524:555   */\n      dup2\n      and\n        /* \"#utility.yul\":514:556   */\n      dup2\n      eq\n        /* \"#utility.yul\":504:574   */\n      tag_71\n      jumpi\n        /* \"#utility.yul\":570:571   */\n      0x00\n        /* \"#utility.yul\":567:568   */\n      dup1\n        /* \"#utility.yul\":560:572   */\n      revert\n        /* \"#utility.yul\":504:574   */\n    tag_71:\n        /* \"#utility.yul\":407:580   */\n      swap2\n      swap1\n      pop\n      jump\t// out\n        /* \"#utility.yul\":585:839   */\n    tag_19:\n        /* \"#utility.yul\":653:659   */\n      0x00\n        /* \"#utility.yul\":661:667   */\n      dup1\n        /* \"#utility.yul\":714:716   */\n      0x40\n        /* \"#utility.yul\":702:711   */\n      dup4\n        /* \"#utility.yul\":693:700   */\n      dup6\n        /* \"#utility.yul\":689:712   */\n      sub\n        /* \"#utility.yul\":685:717   */\n      slt\n        /* \"#utility.yul\":682:734   */\n      iszero\n      tag_73\n      jumpi\n        /* \"#utility.yul\":730:731   */\n      0x00\n        /* \"#utility.yul\":727:728   */\n      dup1\n        /* \"#utility.yul\":720:732   */\n      revert\n        /* \"#utility.yul\":682:734   */\n    tag_73:\n        /* \"#utility.yul\":753:782   */\n      tag_74\n        /* \"#utility.yul\":772:781   */\n      dup4\n        /* \"#utility.yul\":753:782   */\n      tag_64\n      jump\t// in\n    tag_74:\n        /* \"#utility.yul\":743:782   */\n      swap5\n        /* \"#utility.yul\":829:831   */\n      0x20\n        /* \"#utility.yul\":814:832   */\n      swap4\n      swap1\n      swap4\n      add\n        /* \"#utility.yul\":801:833   */\n      calldataload\n      swap4\n      pop\n      pop\n      pop\n        /* \"#utility.yul\":585:839   */\n      jump\t// out\n        /* \"#utility.yul\":1070:1256   */\n    tag_27:\n        /* \"#utility.yul\":1129:1135   */\n      0x00\n        /* \"#utility.yul\":1182:1184   */\n      0x20\n        /* \"#utility.yul\":1170:1179   */\n      dup3\n        /* \"#utility.yul\":1161:1168   */\n      dup5\n        /* \"#utility.yul\":1157:1180   */\n      sub\n        /* \"#utility.yul\":1153:1185   */\n      slt\n        /* \"#utility.yul\":1150:1202   */\n      iszero\n      tag_77\n      jumpi\n        /* \"#utility.yul\":1198:1199   */\n      0x00\n        /* \"#utility.yul\":1195:1196   */\n      dup1\n        /* \"#utility.yul\":1188:1200   */\n      revert\n        /* \"#utility.yul\":1150:1202   */\n    tag_77:\n        /* \"#utility.yul\":1221:1250   */\n      tag_78\n        /* \"#utility.yul\":1240:1249   */\n      dup3\n        /* \"#utility.yul\":1221:1250   */\n      tag_64\n      jump\t// in\n    tag_78:\n        /* \"#utility.yul\":1211:1250   */\n      swap4\n        /* \"#utility.yul\":1070:1256   */\n      swap3\n      pop\n      pop\n      pop\n      jump\t// out\n        /* \"#utility.yul\":1865:1992   */\n    tag_65:\n        /* \"#utility.yul\":1926:1936   */\n      0x4e487b71\n        /* \"#utility.yul\":1921:1924   */\n      0xe0\n        /* \"#utility.yul\":1917:1937   */\n      shl\n        /* \"#utility.yul\":1914:1915   */\n      0x00\n        /* \"#utility.yul\":1907:1938   */\n      mstore\n        /* \"#utility.yul\":1957:1961   */\n      0x11\n        /* \"#utility.yul\":1954:1955   */\n      0x04\n        /* \"#utility.yul\":1947:1962   */\n      mstore\n        /* \"#utility.yul\":1981:1985   */\n      0x24\n        /* \"#utility.yul\":1978:1979   */\n      0x00\n        /* \"#utility.yul\":1971:1986   */\n      revert\n        /* \"#utility.yul\":1997:2125   */\n    tag_39:\n        /* \"#utility.yul\":2064:2073   */\n      dup2\n      dup2\n      sub\n        /* \"#utility.yul\":2085:2096   */\n      dup2\n      dup2\n      gt\n        /* \"#utility.yul\":2082:2119   */\n      iszero\n      tag_84\n      jumpi\n        /* \"#utility.yul\":2099:2117   */\n      tag_84\n      tag_65\n      jump\t// in\n    tag_84:\n        /* \"#utility.yul\":1997:2125   */\n      swap3\n      swap2\n      pop\n      pop\n      jump\t// out\n        /* \"#utility.yul\":2746:2871   */\n    tag_57:\n        /* \"#utility.yul\":2811:2820   */\n      dup1\n      dup3\n      add\n        /* \"#utility.yul\":2832:2842   */\n      dup1\n      dup3\n      gt\n        /* \"#utility.yul\":2829:2865   */\n      iszero\n      tag_84\n      jumpi\n        /* \"#utility.yul\":2845:2863   */\n      tag_84\n      tag_65\n      jump\t// in\n\n    auxdata: 0xa264697066735822122052c0183bbdd46f8425f1678f40b0311c26e4ca2ef322495befb8dc8127e6e5cc64736f6c63430008140033\n}\n",
				"bytecode": {
					"linkReferences": {},
					"object": "608060405234801561000f575f80fd5b5060405161055e38038061055e83398101604081905261002e91610061565b60018054336001600160a01b031991821617909155600280549091166001600160a01b039290921691909117905561008e565b5f60208284031215610071575f80fd5b81516001600160a01b0381168114610087575f80fd5b9392505050565b6104c38061009b5f395ff3fe608060405234801561000f575f80fd5b5060043610610060575f3560e01c806349ffe225146100645780638da5cb5b14610079578063a60c8eaa146100a9578063b097e202146100bc578063d0678947146100cf578063e49318e31461010a575b5f80fd5b6100776100723660046103d3565b61011d565b005b60015461008c906001600160a01b031681565b6040516001600160a01b0390911681526020015b60405180910390f35b6100776100b7366004610405565b6101de565b60025461008c906001600160a01b031681565b6100f56100dd36600461042d565b5f602081905290815260409020805460019091015482565b604080519283526020830191909152016100a0565b610077610118366004610405565b6102c5565b335f908152602081905260409020805482111561017a5760405162461bcd60e51b8152602060048201526016602482015275139bdd08195b9bdd59da081cd85b185c9e481bddd95960521b60448201526064015b60405180910390fd5b81815f015f82825461018c9190610461565b9091555050426001820181905560405133917fcc2be5eca1cb6218903e37b0e975e4b82f9d3e0dceb9e15acaf7f70e580c67de916101d291868252602082015260400190565b60405180910390a25050565b6001546001600160a01b031633146102245760405162461bcd60e51b81526020600482015260096024820152682737ba1037bbb732b960b91b6044820152606401610171565b600254604051632770a7eb60e21b81526001600160a01b0384811660048301526024820184905290911690639dc29fac906044015f604051808303815f87803b15801561026f575f80fd5b505af1158015610281573d5f803e3d5ffd5b5050604080518481524260208201526001600160a01b03861693507f015667182bd5f1720ef3dba482259f4c2e2e16b6ecd198e2fc9433786254e3989250016101d2565b6001546001600160a01b0316331461030b5760405162461bcd60e51b81526020600482015260096024820152682737ba1037bbb732b960b91b6044820152606401610171565b6001600160a01b0382165f908152602081905260408120805483929061033290849061047a565b90915550506002546040516340c10f1960e01b81526001600160a01b03848116600483015260248201849052909116906340c10f19906044015f604051808303815f87803b158015610382575f80fd5b505af1158015610394573d5f803e3d5ffd5b50505050816001600160a01b03167f142249200f1ce13c31606183a61f1e16ef72486fc1f2946f835f37c02a3bcbfd826040516101d291815260200190565b5f602082840312156103e3575f80fd5b5035919050565b80356001600160a01b0381168114610400575f80fd5b919050565b5f8060408385031215610416575f80fd5b61041f836103ea565b946020939093013593505050565b5f6020828403121561043d575f80fd5b610446826103ea565b9392505050565b634e487b7160e01b5f52601160045260245ffd5b818103818111156104745761047461044d565b92915050565b808201808211156104745761047461044d56fea264697066735822122052c0183bbdd46f8425f1678f40b0311c26e4ca2ef322495befb8dc8127e6e5cc64736f6c63430008140033",
					"opcodes": "PUSH1 0x80 PUSH1 0x40 MSTORE CALLVALUE DUP1 ISZERO PUSH2 0xF JUMPI PUSH0 DUP1 REVERT JUMPDEST POP PUSH1 0x40 MLOAD PUSH2 0x55E CODESIZE SUB DUP1 PUSH2 0x55E DUP4 CODECOPY DUP2 ADD PUSH1 0x40 DUP2 SWAP1 MSTORE PUSH2 0x2E SWAP2 PUSH2 0x61 JUMP JUMPDEST PUSH1 0x1 DUP1 SLOAD CALLER PUSH1 0x1 PUSH1 0x1 PUSH1 0xA0 SHL SUB NOT SWAP2 DUP3 AND OR SWAP1 SWAP2 SSTORE PUSH1 0x2 DUP1 SLOAD SWAP1 SWAP2 AND PUSH1 0x1 PUSH1 0x1 PUSH1 0xA0 SHL SUB SWAP3 SWAP1 SWAP3 AND SWAP2 SWAP1 SWAP2 OR SWAP1 SSTORE PUSH2 0x8E JUMP JUMPDEST PUSH0 PUSH1 0x20 DUP3 DUP5 SUB SLT ISZERO PUSH2 0x71 JUMPI PUSH0 DUP1 REVERT JUMPDEST DUP2 MLOAD PUSH1 0x1 PUSH1 0x1 PUSH1 0xA0 SHL SUB DUP2 AND DUP2 EQ PUSH2 0x87 JUMPI PUSH0 DUP1 REVERT JUMPDEST SWAP4 SWAP3 POP POP POP JUMP JUMPDEST PUSH2 0x4C3 DUP1 PUSH2 0x9B PUSH0 CODECOPY PUSH0 RETURN INVALID PUSH1 0x80 PUSH1 0x40 MSTORE CALLVALUE DUP1 ISZERO PUSH2 0xF JUMPI PUSH0 DUP1 REVERT JUMPDEST POP PUSH1 0x4 CALLDATASIZE LT PUSH2 0x60 JUMPI PUSH0 CALLDATALOAD PUSH1 0xE0 SHR DUP1 PUSH4 0x49FFE225 EQ PUSH2 0x64 JUMPI DUP1 PUSH4 0x8DA5CB5B EQ PUSH2 0x79 JUMPI DUP1 PUSH4 0xA60C8EAA EQ PUSH2 0xA9 JUMPI DUP1 PUSH4 0xB097E202 EQ PUSH2 0xBC JUMPI DUP1 PUSH4 0xD0678947 EQ PUSH2 0xCF JUMPI DUP1 PUSH4 0xE49318E3 EQ PUSH2 0x10A JUMPI JUMPDEST PUSH0 DUP1 REVERT JUMPDEST PUSH2 0x77 PUSH2 0x72 CALLDATASIZE PUSH1 0x4 PUSH2 0x3D3 JUMP JUMPDEST PUSH2 0x11D JUMP JUMPDEST STOP JUMPDEST PUSH1 0x1 SLOAD PUSH2 0x8C SWAP1 PUSH1 0x1 PUSH1 0x1 PUSH1 0xA0 SHL SUB AND DUP2 JUMP JUMPDEST PUSH1 0x40 MLOAD PUSH1 0x1 PUSH1 0x1 PUSH1 0xA0 SHL SUB SWAP1 SWAP2 AND DUP2 MSTORE PUSH1 0x20 ADD JUMPDEST PUSH1 0x40 MLOAD DUP1 SWAP2 SUB SWAP1 RETURN JUMPDEST PUSH2 0x77 PUSH2 0xB7 CALLDATASIZE PUSH1 0x4 PUSH2 0x405 JUMP JUMPDEST PUSH2 0x1DE JUMP JUMPDEST PUSH1 0x2 SLOAD PUSH2 0x8C SWAP1 PUSH1 0x1 PUSH1 0x1 PUSH1 0xA0 SHL SUB AND DUP2 JUMP JUMPDEST PUSH2 0xF5 PUSH2 0xDD CALLDATASIZE PUSH1 0x4 PUSH2 0x42D JUMP JUMPDEST PUSH0 PUSH1 0x20 DUP2 SWAP1 MSTORE SWAP1 DUP2 MSTORE PUSH1 0x40 SWAP1 KECCAK256 DUP1 SLOAD PUSH1 0x1 SWAP1 SWAP2 ADD SLOAD DUP3 JUMP JUMPDEST PUSH1 0x40 DUP1 MLOAD SWAP3 DUP4 MSTORE PUSH1 0x20 DUP4 ADD SWAP2 SWAP1 SWAP2 MSTORE ADD PUSH2 0xA0 JUMP JUMPDEST PUSH2 0x77 PUSH2 0x118 CALLDATASIZE PUSH1 0x4 PUSH2 0x405 JUMP JUMPDEST PUSH2 0x2C5 JUMP JUMPDEST CALLER PUSH0 SWAP1 DUP2 MSTORE PUSH1 0x20 DUP2 SWAP1 MSTORE PUSH1 0x40 SWAP1 KECCAK256 DUP1 SLOAD DUP3 GT ISZERO PUSH2 0x17A JUMPI PUSH1 0x40 MLOAD PUSH3 0x461BCD PUSH1 0xE5 SHL DUP2 MSTORE PUSH1 0x20 PUSH1 0x4 DUP3 ADD MSTORE PUSH1 0x16 PUSH1 0x24 DUP3 ADD MSTORE PUSH22 0x139BDD08195B9BDD59DA081CD85B185C9E481BDDD959 PUSH1 0x52 SHL PUSH1 0x44 DUP3 ADD MSTORE PUSH1 0x64 ADD JUMPDEST PUSH1 0x40 MLOAD DUP1 SWAP2 SUB SWAP1 REVERT JUMPDEST DUP2 DUP2 PUSH0 ADD PUSH0 DUP3 DUP3 SLOAD PUSH2 0x18C SWAP2 SWAP1 PUSH2 0x461 JUMP JUMPDEST SWAP1 SWAP2 SSTORE POP POP TIMESTAMP PUSH1 0x1 DUP3 ADD DUP2 SWAP1 SSTORE PUSH1 0x40 MLOAD CALLER SWAP2 PUSH32 0xCC2BE5ECA1CB6218903E37B0E975E4B82F9D3E0DCEB9E15ACAF7F70E580C67DE SWAP2 PUSH2 0x1D2 SWAP2 DUP7 DUP3 MSTORE PUSH1 0x20 DUP3 ADD MSTORE PUSH1 0x40 ADD SWAP1 JUMP JUMPDEST PUSH1 0x40 MLOAD DUP1 SWAP2 SUB SWAP1 LOG2 POP POP JUMP JUMPDEST PUSH1 0x1 SLOAD PUSH1 0x1 PUSH1 0x1 PUSH1 0xA0 SHL SUB AND CALLER EQ PUSH2 0x224 JUMPI PUSH1 0x40 MLOAD PUSH3 0x461BCD PUSH1 0xE5 SHL DUP2 MSTORE PUSH1 0x20 PUSH1 0x4 DUP3 ADD MSTORE PUSH1 0x9 PUSH1 0x24 DUP3 ADD MSTORE PUSH9 0x2737BA1037BBB732B9 PUSH1 0xB9 SHL PUSH1 0x44 DUP3 ADD MSTORE PUSH1 0x64 ADD PUSH2 0x171 JUMP JUMPDEST PUSH1 0x2 SLOAD PUSH1 0x40 MLOAD PUSH4 0x2770A7EB PUSH1 0xE2 SHL DUP2 MSTORE PUSH1 0x1 PUSH1 0x1 PUSH1 0xA0 SHL SUB DUP5 DUP2 AND PUSH1 0x4 DUP4 ADD MSTORE PUSH1 0x24 DUP3 ADD DUP5 SWAP1 MSTORE SWAP1 SWAP2 AND SWAP1 PUSH4 0x9DC29FAC SWAP1 PUSH1 0x44 ADD PUSH0 PUSH1 0x40 MLOAD DUP1 DUP4 SUB DUP2 PUSH0 DUP8 DUP1 EXTCODESIZE ISZERO DUP1 ISZERO PUSH2 0x26F JUMPI PUSH0 DUP1 REVERT JUMPDEST POP GAS CALL ISZERO DUP1 ISZERO PUSH2 0x281 JUMPI RETURNDATASIZE PUSH0 DUP1 RETURNDATACOPY RETURNDATASIZE PUSH0 REVERT JUMPDEST POP POP PUSH1 0x40 DUP1 MLOAD DUP5 DUP2 MSTORE TIMESTAMP PUSH1 0x20 DUP3 ADD MSTORE PUSH1 0x1 PUSH1 0x1 PUSH1 0xA0 SHL SUB DUP7 AND SWAP4 POP PUSH32 0x15667182BD5F1720EF3DBA482259F4C2E2E16B6ECD198E2FC9433786254E398 SWAP3 POP ADD PUSH2 0x1D2 JUMP JUMPDEST PUSH1 0x1 SLOAD PUSH1 0x1 PUSH1 0x1 PUSH1 0xA0 SHL SUB AND CALLER EQ PUSH2 0x30B JUMPI PUSH1 0x40 MLOAD PUSH3 0x461BCD PUSH1 0xE5 SHL DUP2 MSTORE PUSH1 0x20 PUSH1 0x4 DUP3 ADD MSTORE PUSH1 0x9 PUSH1 0x24 DUP3 ADD MSTORE PUSH9 0x2737BA1037BBB732B9 PUSH1 0xB9 SHL PUSH1 0x44 DUP3 ADD MSTORE PUSH1 0x64 ADD PUSH2 0x171 JUMP JUMPDEST PUSH1 0x1 PUSH1 0x1 PUSH1 0xA0 SHL SUB DUP3 AND PUSH0 SWAP1 DUP2 MSTORE PUSH1 0x20 DUP2 SWAP1 MSTORE PUSH1 0x40 DUP2 KECCAK256 DUP1 SLOAD DUP4 SWAP3 SWAP1 PUSH2 0x332 SWAP1 DUP5 SWAP1 PUSH2 0x47A JUMP JUMPDEST SWAP1 SWAP2 SSTORE POP POP PUSH1 0x2 SLOAD PUSH1 0x40 MLOAD PUSH4 0x40C10F19 PUSH1 0xE0 SHL DUP2 MSTORE PUSH1 0x1 PUSH1 0x1 PUSH1 0xA0 SHL SUB DUP5 DUP2 AND PUSH1 0x4 DUP4 ADD MSTORE PUSH1 0x24 DUP3 ADD DUP5 SWAP1 MSTORE SWAP1 SWAP2 AND SWAP1 PUSH4 0x40C10F19 SWAP1 PUSH1 0x44 ADD PUSH0 PUSH1 0x40 MLOAD DUP1 DUP4 SUB DUP2 PUSH0 DUP8 DUP1 EXTCODESIZE ISZERO DUP1 ISZERO PUSH2 0x382 JUMPI PUSH0 DUP1 REVERT JUMPDEST POP GAS CALL ISZERO DUP1 ISZERO PUSH2 0x394 JUMPI RETURNDATASIZE PUSH0 DUP1 RETURNDATACOPY RETURNDATASIZE PUSH0 REVERT JUMPDEST POP POP POP POP DUP2 PUSH1 0x1 PUSH1 0x1 PUSH1 0xA0 SHL SUB AND PUSH32 0x142249200F1CE13C31606183A61F1E16EF72486FC1F2946F835F37C02A3BCBFD DUP3 PUSH1 0x40 MLOAD PUSH2 0x1D2 SWAP2 DUP2 MSTORE PUSH1 0x20 ADD SWAP1 JUMP JUMPDEST PUSH0 PUSH1 0x20 DUP3 DUP5 SUB SLT ISZERO PUSH2 0x3E3 JUMPI PUSH0 DUP1 REVERT JUMPDEST POP CALLDATALOAD SWAP2 SWAP1 POP JUMP JUMPDEST DUP1 CALLDATALOAD PUSH1 0x1 PUSH1 0x1 PUSH1 0xA0 SHL SUB DUP2 AND DUP2 EQ PUSH2 0x400 JUMPI PUSH0 DUP1 REVERT JUMPDEST SWAP2 SWAP1 POP JUMP JUMPDEST PUSH0 DUP1 PUSH1 0x40 DUP4 DUP6 SUB SLT ISZERO PUSH2 0x416 JUMPI PUSH0 DUP1 REVERT JUMPDEST PUSH2 0x41F DUP4 PUSH2 0x3EA JUMP JUMPDEST SWAP5 PUSH1 0x20 SWAP4 SWAP1 SWAP4 ADD CALLDATALOAD SWAP4 POP POP POP JUMP JUMPDEST PUSH0 PUSH1 0x20 DUP3 DUP5 SUB SLT ISZERO PUSH2 0x43D JUMPI PUSH0 DUP1 REVERT JUMPDEST PUSH2 0x446 DUP3 PUSH2 0x3EA JUMP JUMPDEST SWAP4 SWAP3 POP POP POP JUMP JUMPDEST PUSH4 0x4E487B71 PUSH1 0xE0 SHL PUSH0 MSTORE PUSH1 0x11 PUSH1 0x4 MSTORE PUSH1 0x24 PUSH0 REVERT JUMPDEST DUP2 DUP2 SUB DUP2 DUP2 GT ISZERO PUSH2 0x474 JUMPI PUSH2 0x474 PUSH2 0x44D JUMP JUMPDEST SWAP3 SWAP2 POP POP JUMP JUMPDEST DUP1 DUP3 ADD DUP1 DUP3 GT ISZERO PUSH2 0x474 JUMPI PUSH2 0x474 PUSH2 0x44D JUMP INVALID LOG2 PUSH5 0x6970667358 0x22 SLT KECCAK256 MSTORE 0xC0 XOR EXTCODESIZE 0xBD 0xD4 PUSH16 0x8425F1678F40B0311C26E4CA2EF32249 JUMPDEST 0xEF 0xB8 0xDC DUP2 0x27 0xE6 0xE5 0xCC PUSH5 0x736F6C6343 STOP ADDMOD EQ STOP CALLER "
				},
				"gasEstimates": {
					"creation": {
						"codeDepositCost": "243800",
						"executionCost": "infinite",
						"totalCost": "infinite"
					},
					"external": {
						"claimSalary(uint256)": "50547",
						"employees(address)": "4724",
						"fundSalary(address,uint256)": "infinite",
						"owner()": "2325",
						"reconcile(address,uint256)": "infinite",
						"sovr()": "2369"
					}
				},
				"methodIdentifiers": {
					"claimSalary(uint256)": "49ffe225",
					"employees(address)": "d0678947",
					"fundSalary(address,uint256)": "e49318e3",
					"owner()": "8da5cb5b",
					"reconcile(address,uint256)": "a60c8eaa",
					"sovr()": "b097e202"
				}
			},
			"storageLayout": {
				"storage": [
					{
						"astId": 12,
						"contract": "AutoPayroll.sol:AutoPayroll",
						"label": "employees",
						"offset": 0,
						"slot": "0",
						"type": "t_mapping(t_address,t_struct(Employee)7_storage)"
					},
					{
						"astId": 14,
						"contract": "AutoPayroll.sol:AutoPayroll",
						"label": "owner",
						"offset": 0,
						"slot": "1",
						"type": "t_address"
					},
					{
						"astId": 17,
						"contract": "AutoPayroll.sol:AutoPayroll",
						"label": "sovr",
						"offset": 0,
						"slot": "2",
						"type": "t_contract(SOVRCredit)329"
					}
				],
				"types": {
					"t_address": {
						"encoding": "inplace",
						"label": "address",
						"numberOfBytes": "20"
					},
					"t_contract(SOVRCredit)329": {
						"encoding": "inplace",
						"label": "contract SOVRCredit",
						"numberOfBytes": "20"
					},
					"t_mapping(t_address,t_struct(Employee)7_storage)": {
						"encoding": "mapping",
						"key": "t_address",
						"label": "mapping(address => struct AutoPayroll.Employee)",
						"numberOfBytes": "32",
						"value": "t_struct(Employee)7_storage"
					},
					"t_struct(Employee)7_storage": {
						"encoding": "inplace",
						"label": "struct AutoPayroll.Employee",
						"members": [
							{
								"astId": 4,
								"contract": "AutoPayroll.sol:AutoPayroll",
								"label": "salaryOwed",
								"offset": 0,
								"slot": "0",
								"type": "t_uint256"
							},
							{
								"astId": 6,
								"contract": "AutoPayroll.sol:AutoPayroll",
								"label": "lastClaimTs",
								"offset": 0,
								"slot": "1",
								"type": "t_uint256"
							}
						],
						"numberOfBytes": "64"
					},
					"t_uint256": {
						"encoding": "inplace",
						"label": "uint256",
						"numberOfBytes": "32"
					}
				}
			},
			"userdoc": {
				"kind": "user",
				"methods": {},
				"version": 1
			}
		}
	}
}